:020000022000DC
:1060000000000420BD620200E5620200E7620200B7
:10601000E9620200EB620200ED6202000000000093
:10602000000000000000000000000000EF6202001D
:10603000F162020000000000F3620200F56202005B
:106040008D940200F7620200D99D020011AD02009A
:10605000E5AE0200F7620200C9980200D1B5020065
:10606000F7620200F7620200F7620200F7620200C4
:10607000F7620200F7620200F7620200F7620200B4
:10608000F762020071740200F7620200F762020018
:1060900011750200F762020009E40200F7620200D3
:1060A000F7620200F7620200A9A00200F762020094
:1060B000F7620200F762020000000000000000002A
:1060C000F7620200F7620200F7620200F762020064
:1060D000F7620200F7620200F7620200F762020054
:1060E000F7620200F7620200F7620200000000009F
:1060F00000000000F762020000000000F7620200EA
:10610000000000000000000000000000000000008F
:10611000000000000000000000000000000000007F
:10612000000000000000000000000000000000006F
:10613000000000000000000000000000000000005F
:10614000000000000000000000000000000000004F
:10615000000000000000000000000000000000003F
:10616000000000000000000000000000000000002F
:10617000000000000000000000000000000000001F
:10618000000000000000000000000000000000000F
:1061900000000000000000000000000000000000FF
:1061A00000000000000000000000000000000000EF
:1061B00000000000000000000000000000000000DF
:1061C00000000000000000000000000000000000CF
:1061D00000000000000000000000000000000000BF
:1061E00000000000000000000000000000000000AF
:1061F000000000000000000000000000000000009F
:1062000010B5054C237833B9044B13B10448AFF3F0
:1062100000800123237010BDA82B00200000000087
:10622000DC09030008B5034B1BB103490348AFF376
:10623000008008BD00000000AC2B0020DC0903003A
:10624000A3F5803A704700BF174B002B08BF134BD4
:106250009D46FFF7F5FF00218B460F461348144A71
:10626000121A08F0C1FA0E4B002B00D098470D4BC4
:10627000002B00D098470020002104000D000D489D
:10628000002802D00C48AFF3008008F07BFA200011
:10629000290006F051F908F061FA00BF000008007B
:1062A000000000000000000000000420A82B0020D7
:1062B0000442002000000000000000000649074AD8
:1062C000074B9B1A03DD043BC858D050FBDC02F09F
:1062D0000FFDFFF7B9FF0000FC0A0300E82A0020C9
:1062E000A82B0020FEE7FEE7FEE7FEE7FEE7FEE75D
:1062F000FEE7FEE7FEE7FEE7704700BF00B583B0AC
:10630000044B0093044A402300F036F803B05DF8D4
:1063100004FB00BF1D630200C82B002002B32DE95F
:10632000F843114B114E88461446032743F00109E8
:106330000025224608EB0501002006F0D5FA0346A9
:10634000E41A4FF47A401D4423B9337833B1C84777
:10635000013F06D001233370002CEAD1BDE8F88359
:1063600070473770BDE8F88360FB0200C42B002043
:10637000704700BF06F08EBBF0B595B0084600240C
:106380000E4617461D4602F077FB1A9A0D922346D9
:10639000082205A93046CDE9095408978DF82C400C
:1063A0000C9402F0CDFBDDE906219DF814308DF848
:1063B0001140CDE9021203F00302012A28D0022A7B
:1063C00004D0304602F05CFB15B0F0BDBDF81650AD
:1063D000C3F3C203C5F389158DF810300827082DC3
:1063E0002C4628BF08243B4622460EA9304602F020
:1063F000A7FB2D1B08AB02AA21460EA8274400F0DC
:1064000041FD002DEBD1304602F03AFB15B0F0BD56
:10641000BDF814100598C1F38312C3F3C203C0F38F
:106420009525C1F383148DF810300EA930469200E3
:10643000082302F085FB08AB0093224602AB0EA9AD
:10644000284600F0A9FC304602F01AFB15B0F0BD5A
:1064500008B5FFF78FFF0448042100F019FC034B37
:1064600001225A7108BD00BFE40A0300E82A002097
:10647000064B074810B500221A7002F0B1FA044624
:1064800010B9044802F0D2FB204610BDD82C0020E1
:10649000400A03009CFB020030B499B10D490E4D37
:1064A000491BC90813D00D4C002302E00133994267
:1064B0000AD034F823208242F8D1184655F830002B
:1064C00030BC7047044DF9E7002030BC70470846E7
:1064D000F6E700BFE40A0300540A0300A42B0020DF
:1064E000094B013903EBC00003290BD8DFE801F0A9
:1064F0000402080604207047022070474079704764
:106500000079704700207047540A03002DE9F043DA
:10651000904CD4E901239A4285B060D00023C4F89E
:106520001834BFF34F8FA568EAB2D31C04EB830184
:1065300014F82330580718D566680B7803F0030366
:10654000012B42D0022B03D14B88023505EB93156A
:10655000EAB2D4F81804D31C04EB830128B9AE4284
:1065600039D914F823305B07E7D404EB82026B1CA3
:10657000DBB2D26804EB830302F00301DB6802297B
:10658000CDE9012305F102062DD0012900F092800A
:10659000D4F810543DB12B6828469B689847EB68A7
:1065A0001D68002DF7D16C486C4B6D49C01AC008AE
:1065B000000440F0020000F0D9F8D4E90130C01A1C
:1065C00018BF012005B0BDE8F0830B880235C3F386
:1065D00083131D44BCE7A66005B0BDE8F08300202E
:1065E00005B0BDE8F083BDF806305E48C3F38918F6
:1065F0004546502D28BF502505F1080165F38F133E
:10660000C1F30901ADF8063002F0ECF907460028A5
:10661000BED002F031FA0023082201A9384602F068
:106620005BFAF343DBB20133B5EB830F4FEA83022E
:106630007ED9F1B25FFA82F9033104EB8101384669
:106640000823A5EB090502F047FAEDB209F10803AA
:10665000454903F0FC032A46384602F03DFA08F1AA
:10666000030806EB9806D4F81834002B6ED1D4F842
:10667000105465B1EB685A7928463946002A61D032
:106680002B681B689847EB681D68002DF2D13846CF
:1066900002F0F6F900230DF103008DF8033001F04C
:1066A0008BFBD4F8183403B9A6609DF8030001F001
:1066B000A9FB82E7BDF804202A48C2F38313062B06
:1066C00028BF062363F38912023303F00F01890008
:1066D000ADF8042002F086F9074600283FF458AFD1
:1066E00002F0CAF90023082201A9384602F0F4F9A1
:1066F000BDF8043013F4707FB5D06FF001094FF08E
:106700000808A9EB0509F1B203314346042204EB62
:106710008101384602F0E0F9BDF804300136C3F3D8
:10672000831309EB0602934208F10408EBD89AE7B9
:10673000F1B203312A4604EB81010823384602F006
:10674000CBF98CE71D68002D94D1A0E7384602F004
:1067500097F932E7D82C00209C0A0300540A030062
:1067600084FB0200400A0300E42C00202DE9F04FD6
:10677000DFF89CA187B0002306460DF10B008DF8D1
:106780000B30019101F018FBDAE9018303F5807306
:10679000A3EB0803012B00F281800AF21C450AF5E5
:1067A00083670AF214441AE0BDF80E30C3F389136C
:1067B00003334FEA11490BEB930B204601F08CFD9C
:1067C000494600283AD02846CAF808B001F060FDD2
:1067D000DAE9012303F580739B1A012B5FD80121AD
:1067E000284601F055FD384601F06AFD204601F0CB
:1067F00067FDDAF80830DAB2D11C0AEB810C1AF81E
:10680000211001F00400490728D40AEB82015A1C28
:10681000C9680391D2B201F003000AEB8202012899
:10682000D16803F1020B31D00228BDD0204601F01F
:1068300053FD4FF0000949460028C4D12846C5E75A
:10684000BCF802300EEB9313DAB2D11C0AEB810CC8
:106850001AF8211001F004000028D6D09CF800108E
:1068600001F0030101290AD0022903F1020E02F10D
:106870000301E5D00AEB810C0028EFD1C5E7BCF895
:1068800000200233C2F383121344DDE7BDF80C305D
:10689000C3F383134FEA11499B448EE74246D3B2B8
:1068A0000333023205219DF80B004AF82310CAF881
:1068B000042001F0A7FA0021144801F0C7FC80F37E
:1068C0001001F300019A03F0380343F0010308F1CB
:1068D000010043EA8223C0B25FFA88F209040AEB9E
:1068E0008000033241EA1641C1604AF822309AF82A
:1068F000003013B907B0BDE8F08FFFF707FE00289E
:10690000F8D0FFF703FE0028F7D1F3E7F4300020BA
:10691000D82C00202DE9F04FDFF8ACB187B0002370
:1069200006460DF10B008DF80B30CDE9001201F099
:1069300043FADBE9018303F58073A3EB0803022B21
:1069400000F281800BF21C450BF583670BF21444B7
:106950001AE0BDF80E20C2F3891203324FEA114A41
:1069600009EB9209204601F0B7FC514600283AD0C5
:106970002846CBF8089001F08BFCDBE9012303F5F6
:1069800080739B1A022B5FD80121284601F080FCFE
:10699000384601F095FC204601F092FCDBF8083007
:1069A000DAB2D11C0BEB810C1BF8211001F00400B2
:1069B000490728D40BEB82015A1CC9680391D2B253
:1069C00001F003000BEB82020128D16803F10209F8
:1069D00031D00228BDD0204601F07EFC4FF0000AE5
:1069E00051460028C4D12846C5E7BCF802300EEB5A
:1069F0009313DAB2D11C0BEB810C1BF8211001F0C0
:106A000004000028D6D09CF8001001F003010129F1
:106A10000AD0022903F1020E02F10301E5D00BEBCB
:106A2000810C0028EFD1C5E7BCF800200233C2F387
:106A300083121344DDE7BDF80C20C2F383124FEA42
:106A4000114A91448EE74246D3B2033303324521C3
:106A50009DF80B004BF82310CBF8042001F0D2F97D
:106A600008F10203DBB20BEB8303019ADA60002129
:106A7000144801F0EBFB80F31001F300009A03F0DF
:106A8000380343F0410308F1010043EA8223C0B216
:106A90005FFA88F209040BEB8000033241EA1641E9
:106AA000C1604BF822309BF8003013B907B0BDE845
:106AB000F08FFFF72BFD0028F8D0FFF727FD002807
:106AC000F7D1F3E7F4300020D82C00202DE9F04F67
:106AD000DFF8B8B189B0002406460DF11300039326
:106AE000CDE901128DF8134001F066F9DBF80830AA
:106AF000DBF8047003F58073DB1B032B00F281804D
:106B00000BF21C450BF583680BF214441AE0BDF838
:106B10001630C3F3891303334FEA11490AEB930A82
:106B2000204601F0D9FB494600283AD02846CBF848
:106B300008A001F0ADFBDBE9012303F580739B1A8C
:106B4000032B5FD80121284601F0A2FB404601F04B
:106B5000B7FB204601F0B4FBDBF80830DAB2D11CF9
:106B60000BEB810C1BF8211001F00400490728D41D
:106B70000BEB82015A1CC9680591D2B201F00300E7
:106B80000BEB82020128D16803F1020A31D00228FE
:106B9000BDD0204601F0A0FB4FF000094946002877
:106BA000C4D12846C5E7BCF802300EEB9313DAB225
:106BB000D11C0BEB810C1BF8210000F00400002815
:106BC000D6D09CF8001001F0030101290AD0022957
:106BD00003F1020E02F10301E5D00BEB810C00285A
:106BE000EFD1C5E7BCF800200233C2F3831213448F
:106BF000DDE7BDF81430C3F383134FEA11499A441B
:106C00008EE73A46D3B20333043285219DF8130050
:106C10004BF82310CBF8042001F0F4F8BB1CDBB2D6
:106C20000BEB8303029ADA60FB1CDBB20BEB8303F2
:106C3000039ADA600021144801F008FB80F3100188
:106C4000F300019A03F0380343F08103781C43EA10
:106C50008223C0B2FAB209040BEB8000033241EA8E
:106C60001641C1604BF822309BF8003013B909B0CF
:106C7000BDE8F08FFFF74AFC0028F8D0FFF746FC8C
:106C80000028F7D1F3E700BFF4300020D82C002013
:106C900030B4154DD5F810140446002071B10B46E0
:106CA00001E01B6853B1DB681A798242F9D10130E7
:106CB0000A28F3D14FF0FF3030BC7047E3681871F9
:106CC000D5F810344BB1DA68E36812681A60D5F869
:106CD0001034DB681C6030BC7047C5F81044E268B3
:106CE000136030BC704700BFD82C002038B5084B6B
:106CF000D3F8104401251D704CB1E3685D71236821
:106D000020465B689847E3681C68002CF5D138BDC5
:106D1000D82C002030B5C38885B004460D4623BB6F
:106D2000237A052B1FD0627A82B9144AA08852F8C0
:106D3000232003920021FFF7AFFB039A104903467B
:106D4000284605B0BDE8304001F040BB1946A08898
:106D5000FFF7C6FB0B4B0C4953F82020284601F0E7
:106D600035FB237AE1E705B030BD08490091084AB8
:106D70000849284601F02AFBD2E700BF74FC020054
:106D8000D4FB020050FC0200D0FB0200C8FB020052
:106D9000A8FB0200B0FB02002DE9F04385B01D46C0
:106DA0000C9C002394F80C90237380460E461746E3
:106DB00021462846FFF7AEFF062F09D8DFE807F087
:106DC000042E343B444F1F004146204601F0FEFA9A
:106DD0002B7A052B05D06B7A5BB92749204601F049
:106DE000F5FA204601F0E6FA84F80C9005B0BDE80B
:106DF000F083224A2249204601F0E8FAEDE7736960
:106E0000039333690293F3680193B3680093D6E95F
:106E100000234146204601F0D9FAD9E732684146BD
:106E2000204601F0D3FAD3E7D6E9002341462046B5
:106E300001F0CCFACCE7B3680093D6E900234146D1
:106E4000204601F0C3FAC3E7F3680193B3680093E7
:106E5000D6E900234146204601F0B8FAB8E7336985
:106E60000293F3680193B3680093D6E90023414687
:106E7000204601F0ABFAABE7E0FB0200C8FB0200E2
:106E8000D0FB0200082900D970472DE9F04F1D46BC
:106E900083B000241B7B2C730E4607462946104600
:106EA00090460193DFF8D0B0DFF8D0A0FFF732FFB3
:106EB00005E03A5D013401F089FA082C09D0A642B8
:106EC00051462846F5D85946013401F07FFA082C7E
:106ED000F5D12449DFF8A8B0234CDFF8A8A0284654
:106EE00001F074FA4FF0000917E017F80910481C78
:106EF0007E294FF02E02C0B206D810F80A2012F0F8
:106F0000970F14BF0A462E222146284609F101098F
:106F100001F05CFAB9F1080F0AD04E45E5D85946A0
:106F2000284609F1010901F051FAB9F1080FF4D12D
:106F300098F80830052B02D098F809305BB90B4956
:106F4000284601F043FA284601F034FA019B2B73DE
:106F500003B0BDE8F08F064A0649284601F036FA2C
:106F6000EDE700BFF0FB0200F4FB0200E0FB0200D3
:106F7000C8FB0200D0FB0200ECFB0200E4FB0200B5
:106F8000DCFB02004008030038B5174B1D783DB309
:106F9000164A1168C0B200230C4604E00133AB422C
:106FA00004F108041CD011F833209042F6D102F00D
:106FB0007BFC6378A3F10103B3FA83F35B0983429B
:106FC00000D038BD0A4BD3E900231343F9D1094B54
:106FD000094819680022BDE83840490800F0EABCB9
:106FE00000231B78FFDE00BF90310020E03100203D
:106FF000B831002094310020983100202DE9F04F65
:10700000DFF8788298F8003083B0002B00F02B81F5
:10701000DFF86C92954F964E00254FF0010AD7F895
:1070200000B01BF8350002F03FFC1BF835400BEBBD
:10703000C50361085B7816F801C014F0010EA3F1D6
:107040000103B3FA83F314BF4FEA1C120CF00F02D2
:107050005B09042A00F2EA80DFE802F0725F332065
:107060000300834240F09F80BEF1000F0CBFF0236D
:107070000F230CEA030C0CBF0323302343EA0C0359
:10708000735498F8002001359542C8DBD9E90023F4
:10709000134340F0DE8003B0BDE8F08F834200F080
:1070A000C580BEF1000F0CBFF0230F230CEA030CC8
:1070B0000CBF0423402343EA0C03735498F80020C8
:1070C000E1E7834240F0B580BEF1000F0CBFF02332
:1070D0000F230CEA030C98F800200CBF0323302385
:1070E00043EA0C037354002AD0D0D7F800C0002321
:1070F000614603E0934201F10801C4D01CF833005B
:10710000A04203F10103F5D14B68002BBBD0204610
:107110000121984798F80020B5E7834219BF002362
:107120001A4620230222BEF1000F16BF1A46F02392
:107130000F230CEA03031A43725498F80020A2E7C5
:10714000834273D14FF00003BEF1000F8DF807307A
:1071500014BF0F23F0230CEA030C14BF10230123E8
:1071600043EA0C030DF10700735400F025FEA4F16F
:107170002003C4F120022AFA02F20AFA03F31343AD
:10718000D9F800209DF807000AFA04F42243C9F850
:107190000020D9F804201343C9F8043000F032FE6F
:1071A00098F800206FE7BEF1000F14BF0F23F02303
:1071B0000CEA030398F800C07354BCF1000F12D01E
:1071C00038680023024603E0634502F108020AD052
:1071D00010F83310A14203F10103F5D1536813B144
:1071E0000021204698474FF000030DF107008DF86D
:1071F000073000F0E1FDA4F12003C4F120022AFAD7
:1072000002F20AFA03F31343D9F800209DF80700AD
:107210000AFA04F422EA0402C9F80020D9F804208A
:1072200022EA0303C9F8043000F0ECFD98F80020CE
:1072300029E7BEF1000F0CBFF0230F230CEA030C6B
:107240000CBF0123102343EA0C03735498F8002069
:1072500019E7084B084819680022490803B0BDE83F
:10726000F04F00F0A7BBDFF818900FE7E0310020E7
:10727000C03100209431002098310020903100204E
:10728000B8310020092A3FD9F0B583B0144605462D
:107290000E4602F08DF988B3204B214A1E70214B17
:1072A0001560002120481C60202207F09DFA1F4B2A
:1072B00000200021741EC3E90001E4B236B31C4F64
:1072C00005EBC404032602E0A5421FD01C469DF82E
:1072D000063094F802C020788DF8046023F007038C
:1072E0003A4601A98DF806308DF805C002F06AF91A
:1072F000A4F108030028E7D003B0F0BD02F0FEF8C7
:107300000028C9D003B0F0BD07207047094A0A48D9
:10731000002103B0BDE8F04000F03ABB90310020FE
:10732000E031002094310020C0310020B83100202D
:10733000896F0200FD6F020094FC020070B5084DD9
:107340002B785BB1074E00243368012113F8340019
:1073500002F03AFA2B780134A342F5D8002070BD30
:1073600090310020E031002000B585B003460021B7
:1073700001AA44F20100CDE90111039300F004F8E1
:1073800005B05DF804FB00BF10B572B6FFF7AEFCA8
:10739000FFF7BCF80028FBD1104B114C1149E41A3F
:1073A000E408240444F00100FFF7E0F90E4BD3F8A1
:1073B000F030DB0700D500BE0C4944F00200FFF7B7
:1073C000D5F9BFF34F8F0849094BCA6802F4E06250
:1073D0001343CB60BFF34F8F00BFFDE7540A030098
:1073E0009C0A030098FC020000ED00E0A4FC0200EF
:1073F0000400FA0559B142B1531E1A4005D182600A
:1074000001608380C26010467047092070470E20DB
:10741000704700BF10B48468C26803468088121B9E
:10742000904203D204205DF8044B7047DC681A6870
:1074300020401154DA680132DA6000205DF8044B14
:10744000704700BF03468068DA6890420DD010B4E0
:107450009C689A8818682240825C0A709A68013297
:107460009A6000205DF8044B70470520704700BF0C
:10747000F8B5204A204B0024C2F84041C2F84441EC
:10748000C2F84841C2F84C41C2F80041C2F8044178
:107490001B6833B31949D2F804550A68AD1A1A6843
:1074A00025F07F45AA4227460DD8197CDE69AD1A22
:1074B000144419B1D3E905201F7490471EB1334617
:1074C0001A68AA42F1D90E490E4A0B7812789A42EC
:1074D00008D00D480D4A40F823404FF48011C2F8FF
:1074E0000011F8BD531CDBB2022B08BF00230B7048
:1074F000EFE700BF001001400433002000330020FC
:10750000FD320020FC320020F432002000E100E0D7
:107510002DE9F04FA64AA74913780978994285B01A
:1075200000F082810133DBB2022B08BF0023A248A6
:107530001370A24A0568DFF89C8252F82310D8F82D
:1075400000C06B1823F07F430360BCF1000F00F014
:10755000B7810024634626462746A64612E0DC682B
:10756000D8691F609644891A3CB105EB0E0222F0DF
:107570007F42C3E90124DE611E460124002800F099
:107580005A8103461A688A42E9D9002C00F08681A4
:10759000C8F800309946521A1A6001230293884BAA
:1075A000884FDFF834A243F001034D4603934FF0B8
:1075B000000B7EB3D6E901033446F6697E4ADFF854
:1075C0001CC21268811A21F07F41614500F29B8044
:1075D0000B4423600022C4E90122E26101222274EB
:1075E000002D00F0A8802968994280F09D802A46ED
:1075F00004E01068984280F0A28001469646D26965
:107600009C465B1A002AF4D170462360E261C46193
:10761000002ECFD178783978884219D0BA780B46C5
:107620000131C9B203EB43038A4207EBC30239704D
:107630001379946804BF00213970022B00F0938005
:10764000032B00F08580012B00F09B808142E5D167
:10765000BBF1000F01D1A9452BD07DB3564A5A4B3F
:107660001468D3F80465594FD5F800803A78351B73
:1076700025F07F450335002A00F0E2805249A845F5
:107680002CBF4444641924F07F43C1F84035D1F83D
:107690000425921B9B1B22F07F42033223F07F4381
:1076A0009A4200F2E68000238AF8003005B0BDE877
:1076B000F08F029B002BF6D0002DCFD1444B4FF41E
:1076C0000032C3F88020BFF34F8FBFF36F8F3E4E61
:1076D0003B4C4FF480330127C6F848333C43C6F88F
:1076E00008334FF43C607760A047334BB7604FF4EA
:1076F0003C601D60A047354B1D7000238AF80030A8
:1077000005B0BDE8F08F121A22F07F429A4202D2F1
:107710009B1A23605EE700230122C4E90033A360C3
:10772000E36122743DB12968C8F80040CB1A2B6090
:10773000E56125463DE7C8F80040254639E7CDF824
:1077400004E086467144A1EB0C01019811605CE7EE
:10775000002D3FF461AF00232B74ED69002DFBD1A8
:10776000C8F8005056E74DB1A54252D02B4601E073
:107770009C4235D01A46DB69002BF9D100232374D3
:1077800064E7237C002B7FF461AFD06860609C4687
:107790001369A3605169E16091699AF80020A161C1
:1077A000002A3FF40BAFC4F804C0604606E700BFF0
:1077B000FC320020FD32002000330020F432002093
:1077C000C0FC0200E431002000100140F132002032
:1077D00000E100E004330020F0320020FEFF7F00D3
:1077E000944217D0E1692368D16169B128460A68DB
:1077F00013440B60854207D000230546397878781A
:1078000023744FF0010B21E7002339787878237433
:107810001CE72A46E869C8F80000002840D0D16972
:1078200013680029E3D1E5E7DFF8B0800026D8F837
:1078300000900296B3E68146C8F800000294AEE6D6
:107840004FF48031214AC3F84413C3F804134FF4B2
:107850000031C2F8801111601D4A4FF0010942F059
:107860000102C3F800904FF43C60904787F8009005
:1078700004E7174BD1F80425C1F8402543F0010374
:107880004FF43C609847114B4FF40032C3F800218D
:1078900000238AF8003005B0BDE8F08FE1467AE6B3
:1078A00001920C4A0C490123936008608AF8003069
:1078B0004FF43C60039B9847D8F80000019AAEE76C
:1078C0000123E1466646029369E600BF00E100E05D
:1078D000C0FC0200001001400033002004330020EF
:1078E0002DE9F843214E4FF40033C6F88030BFF342
:1078F0004F8FBFF36F8F1E4D1E4FDFF890804FF4F8
:1079000080334FF001090024C5F8483347EA0907DE
:10791000C5F808334FF43C60C5F80490B847C5F883
:1079200008904FF43C60C8F80040B847124A134B27
:107930001460134A1C701470124A134B14700B22FB
:107940009A701C804FF48012C023C6F8802186F8FC
:1079500014333260C5F8084586F81133D5F804357C
:10796000C8F800302046BDE8F88300BF00E100E021
:1079700000100140C0FC020004330020F13200205E
:10798000FC320020FD320020E431002000330020D2
:10799000074B9B783BB142B138B10368187C10B9F2
:1079A00059745A617047082070470720704700BF1C
:1079B000E43100202DE9F043284EB37883B0002B4A
:1079C0003DD0044600283AD0254B91464A1F9A42A2
:1079D0000D4638D8436993B3437C0027012B0DF142
:1079E00007000CBF88464FF000088DF8077000F0C4
:1079F000E3F97378B278591CC9B28A4208BF394694
:107A000032788A4223D003EB430306EBC303012001
:107A1000144A18719C60D2F804259DF80700717013
:107A2000C3E90325C3E9058900F0ECF90E4B4FF4D7
:107A30008012C3F80021384603B0BDE8F083082067
:107A400003B0BDE8F083072003B0BDE8F0839DF8E4
:107A5000070000F0D7F90420EEE700BFE431002072
:107A6000FAFFFF000010014000E100E070B51B4C80
:107A7000A37882B04BB3054638B343692BB30026D5
:107A800006740DF107008DF8076000F095F9627833
:107A9000A178531CDBB2994208BF33462178994242
:107AA00016D002EB4202637004EBC20402239DF87D
:107AB00007002371A56000F0A5F9094B4FF480126F
:107AC000C3F80021304602B070BD082002B070BD7E
:107AD0009DF8070000F096F90420F4E7E431002057
:107AE00000E100E030B50478012C83B004D0022C12
:107AF0002DD0ECB103B030BD037A002B3CD04368ED
:107B0000364D19782846FFF785FC002855D0344BB0
:107B100001901B688DF8004068469847A968EB689B
:107B2000AA885B1A9A4227D22E4B01221A70E1E7EB
:107B30002D492E48FFF786FC00282DD0284B032224
:107B40001B688DF800206846984703B030BD284B6D
:107B5000284D1A78C168AA5C01918DF80040264929
:107B6000AAB9012203F10C0002F020FD1C4B68466B
:107B70001B68984703B030BD1D4B1E4A1B781E4939
:107B8000D35C0122ABB11D4802F0EEFFB2E7012247
:107B9000181D02F0E9FFE9E71548164A0378124973
:107BA000D35C0122A3B1043003B0BDE8304002F041
:107BB00075BF134802F0FAFC9CE7AA68EB689A428A
:107BC000ACD0074B8DF800001B6868469847A5E7C6
:107BD0000C3003B0BDE8304002F070BC0C33002024
:107BE000083300201C3300203433002020330020D1
:107BF000F02A00207C33002030330020F42A0020BB
:107C0000FC2A00202DE9F0412F4E88B03260002977
:107C100051D08A8804460E462C4809681D46FFF755
:107C2000E9FB10B108B0BDE8F081B289B16828481D
:107C3000FFF7E0FB0028F5D194F810E0637C254EB7
:107C4000254FBEF1000E18BF4FF0010E002B0FCED6
:107C5000EC46ACE80F006368009323680193E36887
:107C60000293A368039396E80F0018BF4FF00E0825
:107C70008CE80F0008BF4FF000086369174A0693AD
:107C8000694638468DF814E08DF81C508DF8158043
:107C900001F0AAFA0028C5D12368114A01331070F7
:107CA000C0D0104A3B781049D35C01223BB1381D4B
:107CB00002F05AFFB6E7072008B0BDE8F08107F1EF
:107CC0000C0002F073FCADE7083300200C330020F9
:107CD00020330020C8FC0200F02A0020E57A0200D0
:107CE0001C3300207C3300203033002070B5104D51
:107CF000014610482E78FFF7A5FB04460EB9204632
:107D000070BD0D480D490378CB5C0D4900222A70E7
:107D1000012243B1043002F027FF0028EFD0FFF723
:107D200023FB204670BD0C3002F040FCF5E700BF9D
:107D30001C3300200C330020F02A00207C3300206C
:107D40003033002070B501461548FFF763FB044649
:107D500008B1204670BD134D134E2B78F35CA3B1D0
:107D6000281D02F0F3FE0028F3D110490C48FFF75C
:107D700069FB0028EDD12B780C49F35C53B1BDE8C9
:107D800070400B48012202F089BE05F10C0002F0A0
:107D900001FCE8E7BDE870400648012202F08EBB16
:107DA00020330020F02A00207C33002034330020D0
:107DB000F42A0020FC2A002070B4EFF3108472B67D
:107DC0000D4B9A68AAB9012199600C490C4ED1F863
:107DD000805035401D60C1F88060D1F884505D60EE
:107DE0004FF0FF33C1F88430027004B962B670BC42
:107DF000704701230370F8E73833002000E100E00A
:107E0000FC06FFBD094B9A687AB170B910B4EFF364
:107E1000108172B6064A1C6814605C6854609860F1
:107E200001B962B65DF8044B7047704738330020E3
:107E300000E100E0037813B9014B01221A7070478A
:107E4000443300200000000010B59FED0F7B84B08C
:107E500002214FF0CC74CDE902410D4A0D480023B8
:107E600069468DED007B01F027FA20B90A4803F03E
:107E7000B5F904B010BDFFF777FA074803F0AEF983
:107E800004B010BDAFF300801F000000030000002D
:107E9000357E0200E8FC0200ECFC020030B5564CD6
:107EA000564885B07521002201238DF80C102270F0
:107EB000009303AA682103F0A1F92378002BFCD0DA
:107EC000A0B10025752201238DF80C20002222701C
:107ED0004A48009303AA682103F090F92378002B05
:107EE000FCD0C0B10025284605B030BD207001236C
:107EF00042480DF10B02682103F078FA2378002B39
:107F0000FCD00028DDD19DF80B50A5F16805B5FA2D
:107F100085F56D09D6E72070012338480DF10B0275
:107F2000682103F063FA2378002BFCD00028D9D114
:107F30009DF80B106829D5D16B2200902070ADF808
:107F40000C202E48022303AA03F058F92378002BB3
:107F5000FCD0002240F219730092ADF80C30227070
:107F60002648022303AA682103F048F92378002B4E
:107F7000FCD0002240F21A630092ADF80C3022705F
:107F80001E48022303AA682103F038F92378002B46
:107F9000FCD0002238230092ADF80C302270174834
:107FA000022303AA682103F029F92378002BFCD0CF
:107FB000002241F61B030092ADF80C3022700F48EE
:107FC000022303AA682103F019F92378002BFCD0BF
:107FD000002141F61C030091ADF80C3021700748D8
:107FE00003AA0223682103F009F92378002BFCD0AF
:107FF000284605B030BD00BF44330020ECFC020031
:108000002DE9F04186B03B23294C8DF80F30002339
:108010002370012380460F461646264800930DF133
:108020000F02682103F0EAF82378002BFCD020B17E
:108030000025284606B0BDE8F081207006231D48C3
:1080400004AA682103F0D2F92378002BFCD0002881
:10805000EED13B21012320708DF80F1015480093BD
:108060000DF10F02682103F0C9F8237803F0FF0532
:10807000002BFAD080B1BDF81030BDF812205BBAE9
:10808000A8F80030BDF8143052BA5BBA28463A80DE
:10809000338006B0BDE8F081207004AA05480623AD
:1080A000682103F0A3F92378002BFCD0E3E700BF9D
:1080B00044330020ECFC0200F0B5184C85B00125DB
:1080C000E3238DF80B3007460E462B460DF10B02CD
:1080D00000954021204603F091F803AA0223402195
:1080E000204603F083F9BDF80C10009549BAE5204D
:1080F0000DF10B022B4639808DF80B0040212046F4
:1081000003F07CF8022303AA4021204603F06EF915
:10811000BDF80C305BBA338005B0F0BDFCFC02004A
:1081200010B59FED0F7B84B04FF4837100234FF0A7
:10813000CC74CDE902410C481A4669468DED007BAE
:1081400001F0BAF820B9094803F048F804B010BDAE
:10815000FFF70AF9054803F041F804B010BD00BF6D
:10816000160000001700000008FD02000CFD0200D0
:1081700030B5134C85B0002540F2063103AAADF8A6
:108180000C10022300955721204603F037F844F2E3
:10819000077103AAADF80C10022300955721204661
:1081A00003F02CF848F6097C0095022303AA572116
:1081B0002046ADF80CC003F021F805B030BD00BF7B
:1081C0000CFD020070B50F4E84B001230522009310
:1081D0008DF80B2005460C460DF10B025721304659
:1081E00003F00CF803AA04233046572103F0FEF8ED
:1081F000BDF80C20BDF80E3052BA5BBA2A8023803D
:1082000004B070BD0CFD02004B0901F01F024FF0DD
:10821000010C0CFA02F100EB830000F021B800BF62
:1082200001F01F02012303FA02F24B0900EB830065
:10823000D14300F021B800BF4B0901F01F0150F8F5
:108240002300C84000F00100704700BF034653E818
:10825000000F0A4643E8002C9CF0000FF7D170474E
:10826000034653E8002F42EA010043E8000C9CF06B
:10827000000FF6D1704700BF034653E8002F02EA13
:10828000010043E8000C9CF0000FF6D1704700BFDE
:10829000034653E8002F02EB010043E8000C9CF07A
:1082A000000FF6D1704700BF034653E8002FA2EB42
:1082B000010043E8000C9CF0000FF6D1704700BFAE
:1082C0000346012253E8001F41EA020043E8000C84
:1082D0009CF0000FF6D170470346002253E8000FD0
:1082E00000EA020143E8001C9CF0000FF6D1704741
:1082F000D0B110B4D0E90112521A0468D2B2531EA0
:108300002160DBB252B101680A6803F1FF3C541CE2
:108310000C6013705FFA8CF3FF2BF4D1036800201C
:1083200018715DF8044B70470E20704730B583B06C
:10833000044600250DF107008DF80750FFF73CFDBE
:10834000D4E900311A688A4210D9511E1960216897
:10835000A3680D6812F8012C208A5B1BE56800FBFE
:1083600002550A79DBB29A4238BF0B719DF80700BB
:10837000FFF748FD284603B030BD00BF30B50546C5
:1083800083B00DF1070000230C468DF80730FFF78E
:1083900013FD2A681368591C1160E9682A8A641A57
:1083A000B4FBF2F41C709DF80700FFF72BFD03B03F
:1083B00030BD00BF826842B110B504464369016810
:1083C000006998470023A36010BD70470EB400B544
:1083D00082B0039921B104AB01AA019300F0AAF87D
:1083E00002B05DF804EB03B0704700BF2DE9F84F11
:1083F0001546A942DDF828800B9A0E4683469A4618
:10840000C0F094800B460127B3FBF5F39D4207F1C2
:108410000107F9D9574538BF574612F0010902D173
:10842000B8F1000F5BD1DBF80810BAF1010F4FF083
:10843000010406D90AF1FF3ABAF1010F05FB04F471
:10844000F8D8B6FBF4F39D4205D805FB04F4B6FB5F
:10845000F4F39D42F9D9DFF8D8A008E0AC42B4FBB0
:10846000F5F319D3DBF808101C46B6FBF3F34A1CEE
:10847000CBF80820DBF800201AF80300505404FB66
:108480001366DBE901329A42E8D35846FFF792FFC0
:10849000B4FBF5F3AC42E5D2B9F1000F16D0B8F158
:1084A000000F13D02024474508F1FF380ED2DBF827
:1084B0000830DBF80020591CCBF80810D454DBE955
:1084C00001329A4204D2B8F1000FECD1BDE8F88F26
:1084D0005846FFF76FFFB8F1000FE4D1F6E79307B6
:1084E0001ED42024DBF80810474501F101029CD27C
:1084F000DBF80030CBF808205C54DBE9013199420D
:1085000008F1FF3803D2B8F1000FEDD18DE75846DE
:10851000FFF750FFDBF80810B8F1000FE4D184E753
:10852000BAF1000F0CBF30242024DBE7012771E7EC
:1085300018FD0200002900F09D812DE9F04FDFF8C1
:1085400098940B7885B0064690460C464FF0300A5A
:1085500001E0237893B1013483B1252B15D0B268A3
:108560003168501CB0608B54D6E901329A42F0D386
:108570003046FFF71FFF2378002BECD1337B002B15
:1085800040F0948005B0BDE8F08F0027234614F832
:10859000012B2D2A63D0302A64D02B2A58D02A2AC6
:1085A00063D0A2F1300109294FF000050BD805EB8B
:1085B000850502EB450513F8012FA2F130010929C9
:1085C000A5F13005F3D92E2A1C4659D0002301E02D
:1085D00014F8012F02F0FB016829F9D0252A00F0D8
:1085E0003E81583AD1B2202930D8202A2ED8DFE84F
:1085F00012F021002D002D002D002D002D002D004A
:108600002D002D002D002D009E0063002D002D005B
:108610002D002D0063002D002D002D002D002D00BC
:108620002D00B2002D002D00EF002D0027012D00A0
:108630002D002100D8F800101022081DC8F80000F5
:1086400009683046CDE90057FFF7D0FE013480E7D6
:10865000234614F8012B2D2A47F004079BD147F03D
:10866000010793E747F0020790E7D8F80020111DB3
:10867000C8F8001015685A782E2A03F10104A5D114
:108680006278A2F13003092B04F101044FF00003DA
:10869000A0D803EB830302EB430314F8012FA2F1EC
:1086A00030010929A3F13003F3D993E7304605B02F
:1086B000BDE8F04FFFF77EBED8F80020111DC8F8C6
:1086C0000010D2F800B08BEAEB72A2EBEB72092A31
:1086D00040F37D81DFF804C3012011466329ACFB20
:1086E00002E200F101004FEAD202F6DC98420246B3
:1086F00038BF1A460292002D40F0BD80B80700F145
:1087000030810025BBF1000FC0F20E817A0700F125
:108710001E8107F00302022A00F03381CDE90057E1
:1087200059460A223046FFF761FE013411E7D8F8B6
:1087300000301A1DC8F800201978B3683268581C38
:10874000B060D154D6E901329A42FFF47FAF30468F
:10875000FFF730FE7AE7D8F800301A1DC8F800207D
:108760001F68B3683268591CB16002F803A0D6E9EB
:108770000123934280F02481591C3268B160782132
:10878000D154D6E90123934280F015810F2F03D9EC
:108790003A4612090F2AFCD84FF0805506E00F2DFB
:1087A0004FEA15127FF652AFB36815465A1CB260F5
:1087B0003268B7FBF5F119F80100D054D6E901325F
:1087C0009A4205FB1177EAD33046FFF7F3FDE6E75F
:1087D000D8F800301A1DC8F8002017F00107D3F8A8
:1087E00000B069D09BF80000002800F0F280B1686A
:1087F0005F46CBF101024B1CB36033685854D6E995
:108800000131994202EB070B1ED217F8010F002825
:10881000F1D15D457FF61AAF202702E05D453FF4B8
:1088200015AFB2683368511CB1609F54D6E901326C
:108830009A4205F1FF35F1D33046FFF7BBFDEDE776
:10884000D8F800100A22F8E630460292FFF7B2FD8F
:1088500017F8010F0028DCD0B168029ACBE7B368A3
:108860003168581CB060CA54D6E901329A42FFF40C
:10887000EDAE6CE77047BBF1000F01DB7A0700D566
:10888000013DB80769D4F9073FF53CAF002D3FF42F
:1088900038AF20220299A942BFF434AFB168481C16
:1088A000B06030684254D6E90101814205F1FF35DC
:1088B0005ED2002DEED124E7BBF1000F03D0584665
:1088C00005F0BAFF0746BD4213D9202201E0BD42A0
:1088D0000FD0B1683368481CB0605A54D6E90131F2
:1088E000994205F1FF35F2D33046FFF763FD2022B0
:1088F000EDE79BF80030002B3FF4A8AEB16832687A
:10890000481CB0605354D6E90131994204D21BF897
:10891000013F002BF3D199E63046FFF74BFD1BF8E2
:10892000013F002BEAD191E6B1683268481CB06083
:10893000CBF1000B2D205054D6E901219142FFF4D8
:10894000E8AE30460393FFF735FD039BE1E6B168DF
:108950003268481CB0602B20EDE7002B3FF4D2AE0C
:1089600091E7002B3FF4CEAEF9073FF5CBAEC8E65A
:1089700030460393FFF71EFD039B2022002D89D173
:10898000BFE6002B7FF4CAAEFDB1029AAA42BFF443
:10899000C5AEB1683268481CB06002F801A0D6E9E3
:1089A0000121914205F1FF35EED330460393FFF7E5
:1089B00001FD039BE8E73046FFF7FCFCB368E5E602
:1089C0003046FFF7F7FCB368D6E60025A6E601209F
:1089D0008CE683461DE700BF18FD0200CDCCCCCC51
:1089E000FFF786BC2DE9F041058A0331043D4E199D
:1089F0008046B6FBF5F6FFF799FCA0B3F6B24FF44C
:108A00008073013E04468380C580C0F800802BD06F
:108A10000346002508E06279AE4202F1010262716C
:108A20003860C0F800801FD040461F46FFF77EFC2C
:108A3000013503460028EED16779791E17D022460A
:108A4000013399421268FBD1D2F800805FB12668E9
:108A5000002501E034463668214640460135FFF7DF
:108A60008DFCAF42F6D800242046BDE8F081206896
:108A70002146FFF783FCF6E701210430FFF708BC2D
:108A80002DE9F041012104460430FFF70DFC10F000
:108A9000FF0301D0BDE8F0816779791E16D0224628
:108AA000013399421268FBD1D2F80080002FF1D037
:108AB0002668002501E034463668214640460135E7
:108AC000FFF75CFCAF42F6D8BDE8F0812068214694
:108AD000BDE8F041FFF752BC2DE9F8438846C7884E
:108AE000417907FB01F1043902EB030C1E1D6145BE
:108AF000154638BFCD1AB7420446B6FBF7F207FB5E
:108B0000126002D8013A2468FCD13E1AAE4228BF56
:108B10002E469DB14FF000090430AD1B324608EBE4
:108B20000901204405F052FEAF42B14424683E469C
:108B30004FF0000028BF2E46002DEDD1BDE8F88390
:108B40002DE9F8430446C788407907FB00F0043854
:108B500002EB030C1E1D6045154638BFC51AB7420F
:108B60008846B6FBF7F107FB116202D80139246889
:108B7000FCD1BE1AAE4228BF2E469DB14FF000096F
:108B8000111DAD1B3246214408EB090005F01EFE05
:108B9000AF42B14424683E464FF0000228BF2E4643
:108BA000002DEDD1BDE8F88341DF7047064A074B41
:108BB00010B5002414701C60BFF35F8F0449054892
:108BC00000F042F8204610BD5033002054330020FE
:108BD00034FD02004833002000B583B000230DF1BE
:108BE00007008DF80730FFF7E7F8F1EE103A23F0B1
:108BF0009F03E1EE103ABFF35F8F0B4B4022C3F8A7
:108C000084219DF80700FFF7FDF805F0F7FB28B970
:108C100020BF40BF20BF03B05DF804FB03B05DF888
:108C200004EBFFF7C1BF00BF00E100E08268002352
:108C3000936082681361826853618268D36082683E
:108C4000536082681360704701600B6843604A6834
:108C5000934204BF00234360704700BF436843B1A1
:108C6000026891680B4443605268934204BF00233A
:108C7000436070471049A1F5947205E052F8333013
:108C8000984238BF61460CD2A1EB020C4FEADC736C
:108C900003EBEC035B10914202EBC30CEED80748E8
:108CA000704702D90CF10802EEE7DCF80400034B30
:108CB000002808BF18467047680203002C01030013
:108CC00070B5161E07DD0C468D1914F8010BFFF761
:108CD00039F8A542F9D1304670BD00BF10B50C4639
:108CE0002046FFF703F80528FAD0012010BD00BF89
:108CF00010B44FF08053D3F83021082A1CD0774AA3
:108D0000D2F8883043F47003C2F88830BFF34F8F35
:108D1000BFF36F8F4FF01023D3F80022002AC0F268
:108D2000AC80D3F80432002BC0F2A7806C4B6D4AA4
:108D30001A605DF8044B70474FF080410020C1F885
:108D40000C01694AC1F81001C1F83805D3F80414C0
:108D5000C2F82015D3F80814C2F82415D3F80C145F
:108D6000C2F82815D3F81014C2F82C15D3F814142F
:108D7000C2F83015D3F81814C2F83415D3F81C14FF
:108D8000C2F84015D3F82014C2F84415D3F82414BF
:108D9000C2F84815D3F82814C2F84C15D3F82C148F
:108DA000C2F85015D3F83014C2F85415D3F834145F
:108DB000C2F86015D3F83814C2F86415D3F83C141F
:108DC000C2F86815D3F84014C2F86C15D3F8341102
:108DD000D3F84434C2F87035032942D8434B5B5C66
:108DE0001BB1434B434AC3F88C26434B5B5C73B1C6
:108DF0004FF080534149D3F83021FB20C1F81805CA
:108E0000082AD3F834117FF47AAF032929D83C4BD0
:108E10005B5CBBB14FF080524FF08040D2F85832CB
:108E2000D0F8E41ED2F8304121F00F0103F00F0317
:108E30000B43C0F8E43E082CD2F834117FF45FAF46
:108E400003290ED82F4B5B5C5BB14FF080532E4A49
:108E5000D3F830314FF40071082BC2F840167FF47C
:108E60004EAF4FF08043D3F80024D2077FF547AFD1
:108E70006FF00102C3F8002441E7244A0123C2F83D
:108E80000435D2F80034002BFBD04FF01023122110
:108E90001E4AC3F80012D2F80034002BFBD04FF06A
:108EA00010231221194AC3F80412D2F80034002BFF
:108EB000FBD000231549C2F80435D1F80034002B4B
:108EC000FBD0BFF34F8F0549114BCA6802F4E06233
:108ED0001343CB60BFF34F8F00BFFDE700ED00E011
:108EE000042B00200090D00300C000406802030063
:108EF00000500040488103006802030000F0004079
:108F000068020300680203000090024000E0014094
:108F10000400FA05074B1B5C1F2B8ABF064A4FF063
:108F2000A04203F01F03D2F80405D84000F001006E
:108F3000704700BF6C02030000030050064B1A5C30
:108F40001F2A86BF054902F01F024FF0A0410123EE
:108F50009340C1F8083570476C02030000030050CD
:108F6000064B1A5C1F2A86BF054902F01F024FF00C
:108F7000A04101239340C1F80C3570476C020300F7
:108F8000000300504FF0A04380214FF48042C3F80B
:108F90000C15C3F80C2570474FF0A04380214FF407
:108FA0008042C3F80815C3F8082570470A4B185CBF
:108FB0001F288ABF09494FF0A04100F01F00D1F8D7
:108FC00004350122824022EA03001340C1F808055B
:108FD000C1F80C35704700BF6C020300000300505D
:108FE0004FF0A043D3F810056FEA503000F00100B5
:108FF000704700BF0D3818BF4FF0FF30704700BFFB
:109000000D207047C10707D4830742BF4FF0A0432C
:109010000C22C3F8342770474FF0A043032210B44A
:109020004FF48041C3F81C278024C3F838278207F7
:10903000C3F80C45C3F80C1504D54FF0A0430C221F
:10904000C3F834275DF8044B704700BF10B568B90A
:109050000E4CA368012262703BB1D3E900230020CB
:10906000A2609847A368002BF7D110BD0128FCD15E
:10907000064C2369A070002BF7D0D3E90023012010
:10908000226198472369002BF7D110BD5833002087
:1090900070B910B5074CA368012262703BB1D3E9E7
:1090A00000230020A2609847A368002BF7D110BDD1
:1090B000704700BF5833002030B5012883B004D07A
:1090C000032821D0B0B103B030BD294C00230DF1ED
:1090D00007008DF80730FEF76FFE23786BB3E36867
:1090E0009DF8070001221344E360A270FEF78AFE98
:1090F00003B030BD1F4B0122C3F88020BFF34F8F58
:10910000BFF36F8F03B030BD194C00F097F9002307
:109110000DF107008DF80730FEF74EFEE368013BC6
:10912000E360E3681BB9144BD3F80054C5B19DF854
:109130000700FEF767FE03B030BD10486360A36010
:109140002361E36000F06EF905F058F960B10A4A56
:1091500001232370D2F80024002AC0D0A370BEE7F8
:1091600000F07EF9A570E2E700F068F9EFE700BFD4
:109170005833002000E100E0000001404D90020063
:1091800030B50A4B0A4C53F8213054F821100278BC
:1091900085B0D0E901548DF80020C26801958DF8A2
:1091A000084003926846984705B030BD74330020EC
:1091B0006C33002030B50A4B0A4C53F8213054F878
:1091C0002110027885B0D0E901548DF80020C268E2
:1091D00001958DF8084003926846984705B030BD68
:1091E000743300206C330020F0B5184B067843F838
:1091F0002620174B0446487F98551546154A8E463B
:10920000096942F8261022789F5CBEE80F0089B0F9
:10921000EC46ACE80F009EE80F008CE80F000496C7
:109220004FB1002D0C4A694608BF2A46201D01F0A7
:1092300027FB09B0F0BD002D084A694608BF2A4641
:1092400004F10C0001F044F809B0F0BD74330020C3
:109250007C3300206C33002081910200B591020024
:10926000034B187810B901221A7070478520704797
:109270007E33002010B584B002780D4C0D4B8DF874
:1092800000208268B0F804C053F821308DF8062021
:1092900054F82110C268446900690290ADF804C016
:1092A00003948DF807206846984704B010BD00BFAE
:1092B00080330020883300202DE9F04F164690F8C7
:1092C00000A0534A42F82A60524A42F82A304B7BA7
:1092D00081B080460C4663B94F4A002E534608BF02
:1092E0003246214608F1040001B0BDE8F04F01F01C
:1092F000E7BE0B68494FDFF828B103F5E0724FF085
:10930000A04340F20C6143F82210626802F5E0725B
:109310004FF0010943F8221021681F2984BF01F092
:109320001F0103F5407301228A40C3F808256368D2
:109330001F2B8ABF3A4A4FF0A04203F01F0309FADD
:1093400003F3C2F8083523684FF0A04203F5E07339
:1093500040F20D6142F82310636803F5E07347EAB9
:10936000090742F823104FF48070B847002562685F
:109370001F2A8ABF5B464FF0A04302F01F01D3F8BB
:10938000103598BF1146CB40DB073DD423681F2B17
:109390008ABF5A464FF0A04203F01F0309FA03F3B5
:1093A000C2F80C354FF48070B84723681F2B86BF76
:1093B00003F01F035A464FF0A04209FA03F3C2F824
:1093C00008354FF480700135B847092DCFD1626858
:1093D0001F2A8ABF12494FF0A04102F01F02012349
:1093E00003FA02F2C1F80C254FF48070B8476268A6
:1093F0001F2A86BF0A4902F01F024FF0A041012335
:109400009340C1F8083567E7002DE1D164E700BF5C
:109410008833002080330020759202008002030010
:1094200000030050044A137923B901211060918090
:10943000184670478520704790330020074B1A6804
:10944000D20704D4C02283F8002301221A604FF00F
:1094500080430122C3F81825704700BF00E100E0F7
:109460004FF0804202210023C2F8081382B0C2F8F4
:109470000431D2F80431019301230199D360D2F869
:109480001834DB03FBD402B0704700BF10B54FF0B7
:10949000804382B0D3F8002162B10021164AC3F89C
:1094A0000011D3F80011507900910121009CC3F8FC
:1094B0000813A8B14FF08043D3F80421CAB10022A9
:1094C000C3F80421D3F80421019202210A4A019829
:1094D000C3F808131368012002B0BDE81040184714
:1094E0001368517198474FF08043D3F80421002A44
:1094F000E5D102B010BD00BF9033002030B5284C3C
:1095000094F86A3083B0002B46D14FF6FF704FF0CD
:10951000FF0C5A09012A18BF4FF0FF3103F01F0258
:1095200008BF014621FA02F2D20748BFE21803F150
:10953000010348BF82F830C0302BEAD14FF0FF3032
:109540004FF0FF314FF0FF33C4E900010622002144
:1095500014482366C4E90233C4E90433C4E906337A
:10956000C4E90833C4E90A3305F03EF90E4BC022C2
:1095700083F8062340221A600C4B0020C3F87C01BC
:10958000D3F87C21019201214FF00042019D84F823
:109590006A10C3F8042300E0082003B030BD00BF08
:1095A00098330020FC33002000E100E00060004020
:1095B000034B93F86A00003818BF0120704700BFC2
:1095C0009833002070B57D4B03EB000E9EF930C040
:1095D000BCF1000F01DB082070BD91F802C01CF047
:1095E000020FCCF340055DD11C6A013400F0DF802E
:1095F0005C6A013400F0D1804FF00C0E4FF00A0C81
:1096000053F82C40013459D00CF10104744547D271
:1096100053F82460013600F0B8800CF10204744560
:109620003ED253F82460013600F0AF800CF10306FF
:10963000764535D253F8264001343ED00CF104066D
:1096400076452DD253F82640013436D00CF105066C
:10965000764525D253F8264001342ED00CF106066B
:1096600076451DD253F82640013426D00CF107066A
:10967000764515D253F8264001341ED00CF1080669
:1096800076450DD253F82640013416D00CF1090C62
:10969000F44505D2DC6A013408BF4FF00B0C0DD045
:1096A000042070BD1C68013471D05C6801347BD02B
:1096B0004FF0080E4FF0020CA2E7B44643F82C20FE
:1096C0001A184FFA8CFE82F830E015B99C448CF8D9
:1096D00058008A7854071CD4D50747D51F2887BF60
:1096E000374A00F01F0404464FF0A04202EB840208
:1096F000D2F8004724F00204C2F80047314DC408F4
:1097000000F0070C2E5D012202FA0CF232432A55BA
:109710008A7812F002021CD04FEA8E0303F18043D4
:1097200003F5C0430978D3F8104524F44F3424F4EA
:109730004074C3F8104502020904D3F8100501F47F
:10974000403102F47C520A430243C3F81025002042
:1097500070BDAEF1080E43FA8EF30C7893F86010EA
:10976000104641EA841283F8602070BD1F284C78AF
:1097700087BF134D00F01F0202464FF0A04502F5CF
:10978000E072A40045F82240B8E7A44696E71A60C4
:1097900000228EF8302096469BE74FF0090C8EF899
:1097A00030C05A62E64691E74FF0010C86E74FF071
:1097B000080C8EF830C01A62E64687E7983300201E
:1097C00000030050FC33002030B4344C04EB000C98
:1097D00082B09CF93030072B24DD083B44FA83F338
:1097E00093F860309B09032B47D0012B0CBF4FF43B
:1097F00000324FF440321F288ABF294B4FF0A0435C
:1098000000F01F0003EB8000D0F8003723F4403352
:10981000C0F80037D0F800371A43C0F8002702B06C
:1098200030BC7047DAB2072AF9D8980000F18040BE
:1098300003F1400200F5C04052B29200D0F810553A
:1098400092B202F1804202F5C04245F00105C0F833
:1098500010550020106012680192019A0029DED094
:109860009CF9302054F82220002AD8D00D4901223A
:1098700002FA03F3C1F80433D1E71F288ABF084A6C
:109880004FF0A04200F01F03D2F8102598BF034606
:10989000DA4002F0010202321204ACE798330020F1
:1098A00000030050006000401F288ABF054B4FF0A6
:1098B000A04300F01F00D3F8103523FA00F000F0A9
:1098C00001007047000300502DE9F047002384B0E9
:1098D000CDE902331C4AD2F80011012900F0308290
:1098E0001E46194BD3F80421012A00F01A82164BA8
:1098F000D3F80821012A00F00582134BD3F80C217C
:10990000012A00F0F081104BD3F81021012A00F059
:10991000DB810D4BD3F81421012A00F0C1810A4BE1
:10992000D3F81821012A00F0AC81074BD3F81C2191
:10993000012A0BD0044BD3F87C21012A00F02182AC
:1099400056BB04B0BDE8F08700600040D3F80423A4
:109950001206EFD50022C3F81C21D3F81C11009188
:10996000D3F87C110098012946F0800614D1C3F881
:109970007C21D3F87C3101934FF0A042019BD2F8B7
:109980002015CF4B0291C2F82015D3F82025039261
:10999000C3F8202546F00046CA4F00240125A30045
:1099A00003F18043354203F5C0434FEA45050BD030
:1099B000D3F8100557F82420D3F81015C0F305206C
:1099C000C1F3014102B190470134082CE7D1002EC8
:1099D000B7DABC4CBA4E01254FF0A04794F96000AD
:1099E000431C48D0C0F3C20202F110030DEB030286
:1099F00000F0070312F8082C05FA03F31A42C1B26B
:109A000000F03F0037D01F2800F22B8102464FF0B4
:109A1000A04909EB820305FA02F2D3F800C7D3F894
:109A200000E72EF4403EC3F800E704EB000ECCF351
:109A3000014C9EF930E0D3F800A754F82E80BCF119
:109A4000020F0CBF4FF4403E4FF4003E4EEA0A0EA8
:109A5000C3F800E7C9F82025B8F1000F0BD0890939
:109A6000032900F08281BCF1020F00F07B81BCF180
:109A7000030F00F0A68194F96100411C48D0C0F3A7
:109A8000C20202F110030DEB030200F0070312F80B
:109A9000082C05FA03F31A42C1B200F03F0037D098
:109AA0001F2800F2E28002464FF0A04909EB820332
:109AB00005FA02F2D3F800C7D3F800E72EF4403ECF
:109AC000C3F800E704EB000ECCF3014C9EF930E044
:109AD000D3F800A754F82E80BCF1020F0CBF4FF44E
:109AE000403E4FF4003E4EEA0A0EC3F800E7C9F8C4
:109AF0002025B8F1000F0BD08909032900F03A8125
:109B0000BCF1020F00F03381BCF1030F00F05D8166
:109B100094F96200421C48D0C0F3C20202F1100363
:109B20000DEB030200F0070312F8082C05FA03F30B
:109B30001A42C1B200F03F0037D01F2800F29980CE
:109B400002464FF0A04909EB820305FA02F2D3F86E
:109B500000C7D3F800E72EF4403EC3F800E704EB5B
:109B6000000ECCF3014C9EF930E0D3F800A754F876
:109B70002E80BCF1020F0CBF4FF4403E4FF4003E6C
:109B80004EEA0A0EC3F800E7C9F82025B8F1000F25
:109B90000BD08909032900F0F280BCF1020F00F01C
:109BA000EB80BCF1030F00F0088194F96300431CC3
:109BB00047D0C0F3C20202F110030DEB030200F024
:109BC000070312F8082C05FA03F31A42C1B200F099
:109BD0003F0036D01F2850D802464FF0A04909EB6D
:109BE000820305FA02F2D3F800C7D3F800E72EF497
:109BF000403EC3F800E704EB000ECCF3014C9EF9A5
:109C000030E0D3F800A754F82E80BCF1020F0CBF4F
:109C10004FF4403E4FF4003E4EEA0A0EC3F800E710
:109C2000C9F82025B8F1000F0BD08909032900F0ED
:109C30009780BCF1020F00F09080BCF1030F00F0A0
:109C4000B880D7F820250292C7F82025D6F820350D
:109C50000393C6F8203513437FF4C0AE04B0BDE8CB
:109C6000F08701F01F02B146D3E601F01F02B146B2
:109C70001CE701F01F02B14665E701F01F02B14683
:109C8000ADE7D3F8042351067FF54FAE0022C3F8A9
:109C90001821D3F818310093009B46F0400644E6A3
:109CA000D3F8042390067FF53AAE0022C3F81421BE
:109CB000D3F814310093009B46F020062FE600BF36
:109CC0000003005098330020D3F80423D4067FF516
:109CD00020AE0022C3F81021D3F810310093009B6E
:109CE00046F0100615E6D3F8042315077FF50BAEF2
:109CF0000022C3F80C21D3F80C310093009B46F0EE
:109D0000080600E6D3F8042357077FF5F6AD0022D6
:109D1000C3F80821D3F808310093009B46F00406ED
:109D2000EBE5D3F8042392077FF5E1AD0022C3F8F9
:109D30000421D3F804310093009B46F00206D6E5D7
:109D4000D2F8046316F001063FF4CBADC2F800313F
:109D5000D2F800310093009BC3E501297FF471AF75
:109D6000C0476EE701297FF486AEC04783E601292C
:109D70007FF4CEAEC047CBE601297FF416AFC047D3
:109D800013E70022C3F87C21D3F87C3101934FF014
:109D9000A042019BD2F820150E4B0291C2F820156B
:109DA000D3F820250392C3F82025002E3FF411AEEE
:109DB000F0E502297FF445AFD2E702297FF4F5AE42
:109DC000DDE702297FF457AECFE702297FF4A0AE8A
:109DD000D0E700BF00030050014B1B68184700BFCD
:109DE00004340020104B98421BD130B583B00023BF
:109DF0000DF107008DF807300D46FDF7DDFF0B4B29
:109E00009DF807001C793CB901221D601A71FDF70D
:109E1000F9FF204603B030BDFDF7F4FF112003B079
:109E200030BD0020704700BF0020004004340020F7
:109E30002DE9F04F85B00026194DDFF868900190AC
:109E4000B3464FF0010805E09DF80F00FDF7DAFF7B
:109E5000A5431ED0F7B20DF10F0008FA07F48DF8F4
:109E60000FB0FDF7A9FF2C4206F10106ECD0D9F89E
:109E7000003014EA030AE7D11C43019B9DF80F0050
:109E80001F70C9F80040FDF7BDFF504605B0BDE8A2
:109E9000F08F4FF0040A504605B0BDE8F08F00BFC8
:109EA000FFFF01000C340020D9B1D2B1012383405F
:109EB00010B4C3F3100484B10D4C2468234212D0B3
:109EC000C00000F1804303F5F8330020C3F81015FB
:109ED000C3F814255DF8044B704707205DF8044B68
:109EE00070470E20704708205DF8044B704700BF94
:109EF0000C340020012202FA00F3580C400440B94F
:109F00001BB1064A1268134205D0054AC2F804354F
:109F10007047072070470820704700BF0C340020AE
:109F200000F001402DE9F04190F804E03B4F0EEBCA
:109F30004E0307EB83059C002B7A82B0002B68D17F
:109F40003A514A686A6042794FEA4E0882B11A462D
:109F50001E469B00046803F5A07C013244F80C60A7
:109F600054F80C5044790195D3B29C42019DF0D82D
:109F70000268CB7842F30734002C4FEA123241DBFF
:109F800004F160445B0104F56144DBB284F8003302
:109F9000026842F30733002B4FEA123409DB204DED
:109FA0005B09012204F01F0402FA04F445F823407F
:109FB0000268D2F804554B7825F0030503F003033B
:109FC0002B43C2F8043505688B78D5F8082503F0D3
:109FD000030322F003021343C5F8083500680B7829
:109FE000D0F81025C64422F00F0203F00F0307EB50
:109FF0008E0713430124C0F8103500203C7202B0D4
:10A00000BDE8F081074C02F00F025B01DBB2A35404
:10A01000BEE7082002B0BDE8F08100BF1034002088
:10A0200000E100E014ED00E00368054A0121196039
:10A03000037903EB430302EB830302211972704798
:10A0400010340020F0B4056840F2011404FA01FC59
:10A05000D5F8004224EA0C04C5F80042056882B035
:10A06000D5F800729DF818604FF480343B438C4063
:10A07000C5F800329EB18B00056803F5A073002679
:10A08000EE50EB5801930368019DC3F80443036845
:10A0900001F5A87143F8212002B0F0BC70470368B5
:10A0A000C3F80843F3E700BF2DE9F041114D124F0B
:10A0B000DFF8488082B000244FF480362B6806FA1F
:10A0C00004F201347BB1D7F8043305F5C0401A42DD
:10A0D0004FF0000180B206D029602B680193D8E9C7
:10A0E0000031019A9847062C05F10405E6D102B02B
:10A0F000BDE8F08140A1014000A0014010340020E3
:10A1000010B5714AD2F8043399058AB068D5D2F8EF
:10A110002431002B64D00023C2F82431D2F824313A
:10A1200001934FF40171694B0198C2F8081393F839
:10A13000291009B901215160634902228DF81820C4
:10A14000D1F88024C1F880249FED5D7B9969D8689F
:10A15000CDE9081283ED067BD3E90012079006A82B
:10A160009047594AD2F81C31C3B1584B5869196A03
:10A1700088426AD993F8281001F0FF00002964D1C1
:10A18000C2F81C01D2F81C11039103999C68186A4B
:10A19000196A205C01311962C2F81C054A4AD2F8DA
:10A1A0004431DBB10021494BC2F84411D2F84401DB
:10A1B00093F829100090009809B1012111609A6963
:10A1C00062B1D8685C6A00210122CDE90704996177
:10A1D0008DF8182006A8D3E9001290470AB010BDE8
:10A1E000394AD2F804335B07BBD5D2F80831002BCB
:10A1F000B7D0364B996900293ED00021C2F808112A
:10A20000D2F8081104910499D868596AD2F818252F
:10A2100042545A6A996901325A625A6A8A42A0D1F2
:10A22000DA69002A31D09A611A69D8685C6ADA6002
:10A23000002101220894D961596207905C6819686D
:10A240008DF8182006A8A0478BE71F4A0020C2F807
:10A250001C01D2F81C210292029A5A69002A9DD050
:10A26000D3E901215C698DF81800CDE90714586124
:10A27000196806A8904791E7C2F80811D2F80801BA
:10A2800005900598D2F81825C7E793F8292012B948
:10A290000D4A012151600C4A4FF40171C2F80813B4
:10A2A000D8685C6A0021012299618DF81820D3E9F1
:10A2B0000012CDE9070406A8904752E7AFF30080EB
:10A2C00000000000000000000020004020340020BA
:10A2D0002DE9F041734E90F804802C2303FB0863B2
:10A2E00082B093F82A30002B40F09C8005460C4643
:10A2F00000686D491746FFF775FD002840F08E8015
:10A300002368591C19D01F2B4FF001028ABF6749DF
:10A310004FF0A04103F01F0302FA03F3C1F8083520
:10A3200023681F2B86BF03F01F03604A4FF0A04233
:10A3300003F5E073032142F8231063685A1C0BD025
:10A340001F2B86BF03F01F03584A4FF0A04203F5AE
:10A35000E073002142F823102B68A269C3F824257A
:10A36000227D637D13432A68C2F86C35D4E900125C
:10A370002B68C3F81425C3F80C15237D012B5CD082
:10A380002C2303FB08F3F21857602269F25097B3AD
:10A390002A68237F0021C2F81C11D2F81C210092E8
:10A3A000009A2A68C2F84411D2F844210192019A15
:10A3B0002A683F49C2F804132A6842F3073100298A
:10A3C0004FEA123232DB01F160415B0101F561417C
:10A3D000DBB281F800332B6843F30732002A4FEADF
:10A3E000133109DB334C5209012301F01F0103FA39
:10A3F00001F144F822102B680422C3F800252C2315
:10A4000003FB086601220023C6E9063386F82930DB
:10A41000736186F82A2002B0BDE8F081112002B0F5
:10A42000BDE8F081082002B0BDE8F081224902F0C9
:10A430000F025B01DBB28B54CDE7A368591C0BD034
:10A440001F2B86BF03F01F0318494FF0A04103F5EF
:10A45000E073002241F82320E3685A1C1AD01F2B16
:10A460008ABF12494FF0A04103F01F03012202FAF4
:10A4700003F3C1F80835E3681F2B88BF03F01F03FF
:10A4800003F5E0738CBF09494FF0A041032241F866
:10A490002320E3682A68A168C2F80835C2F81015BD
:10A4A0006EE700BF2034002001A10200000300502D
:10A4B0008000020000E100E014ED00E02DE9F04131
:10A4C000334C90F804E02C2303FB0E438446586978
:10A4D00084B000284ED15A619960186283F8280030
:10A4E000DCF80020C2F81C01D2F81C210292029A6A
:10A4F000DCF8002001219160DCF800209D68C2F8A2
:10A500001C01D2F81C1101910199196A6E5C196A3B
:10A5100001311962C2F81C655A6812B104B0BDE875
:10A52000F0815E691A6ADCF8001096421BD9074672
:10A5300002E093F828200ABBD1F81C21002AF8D0A9
:10A54000C1F81C71D1F81C210392039A1A6A15F8FC
:10A5500002801A6A01321A62C1F81C851A6A964290
:10A56000EAD8DCF80010D1F81C31002BFBD0012315
:10A57000CB6004E0112004B0BDE8F0810F202C2353
:10A5800003FB0E440023636104B0BDE8F08100BF0B
:10A59000203400200279044B2C2101FB023358693E
:10A5A000003818BF012070472034002030B5554DC9
:10A5B00090F804E02C2303FB0E5387B05C688446BC
:10A5C00024B103684FF40170C3F808032C2303FB84
:10A5D0000E53986998B1D869002840F083801961BA
:10A5E000DA612C2202FB0E52536853B3DCF80030C0
:10A5F0004FF40172C3F80423002007B030BD9A6104
:10A60000D9605862D86193F82930002BE9D1DCF881
:10A610000020C2F82431D2F824210192DCF8002075
:10A620000199C2F80831D2F808310293DCF8003001
:10A63000029901221A602C2202FB0E525368002B51
:10A64000D4D1DCF80010C1F84431D1F8443103937F
:10A65000039BDCF80030D3F82411D3F80841D3F879
:10A66000440154B9002834D10029F4D02C2303FB31
:10A670000E550023AB610320BFE70029F6D150BB84
:10A680009169C3F8080181B1D3F8081104910499C4
:10A69000D468516AD3F818356354536A9169013309
:10A6A0005362536A9942D4D806E0D3F80811059151
:10A6B0000599D3F81835536A2C2303FB0E55002255
:10A6C00095F82930AA61B3B1DCF8003001221A6094
:10A6D00093E70029CAD12C2303FB0E550023AB615D
:10A6E0000F208AE764B1DCF800304FF40172C3F840
:10A6F0000423112081E7DCF8003001225A607CE756
:10A7000011207AE72034002010B55B4BD3F82421C8
:10A710008AB0002A58D00022C3F82421D3F824118B
:10A72000049102228DF818200499544AD3F8801419
:10A73000C3F880149FED4E7B0991D3F83C45D06857
:10A7400082ED067BCDE90704D2E9001306A89847FD
:10A75000494BD3F8442152B10021484AC3F844116F
:10A76000D3F84401916903900398002961D1424BC9
:10A77000D3F8202162B10020C3F82001D3F82021B2
:10A78000029201213D4A029CD9605169002943D1BE
:10A79000394BD3F85821AAB10020C3F85801D3F897
:10A7A0005811364A01910199516959B1D3F84C4574
:10A7B0008DF81800D2E901315061CDE9071406A8DF
:10A7C000116898470AB010BDD3F810110029BFD006
:10A7D000C3F81021D3F81011284C05910599A169EF
:10A7E000D3F83C058842B3D1E169002933D0C4E9EC
:10A7F0000612D3F8002222F02002C3F80022E268F9
:10A800000792012122698DF8181008906368216869
:10A81000E26006A898479BE7D3F84C458DF81800EE
:10A82000D2E901315061CDE9071406A811689847B3
:10A83000AEE79FED0F7BD3F83C45D0684FF0010C9D
:10A84000CDE9070482ED067BD2E900138DF818C02C
:10A8500006A898478BE7E268A1610123CDE90720AC
:10A860008DF8183006A8D4E90013984770E700BFA8
:10A8700000000000000000000020004050340020D4
:10A880002DE9F04307797F4E07EBC70306EB8303FF
:10A8900087B093F82030002B40F0B58004460D4679
:10A8A000006879499046FFF79DFA002840F0A7809C
:10A8B0002B68591C4FEAC70919D01F2B4FF0010212
:10A8C0008ABF72494FF0A04103F01F0302FA03F35D
:10A8D000C1F808352B681F2B86BF03F01F036B4A96
:10A8E0004FF0A04203F5E073032142F823106B6898
:10A8F0005A1C0BD01F2B86BF03F01F03634A4FF077
:10A90000A04203F5E073002142F823102368AA69EE
:10A91000C3F824252B7D6A7D1A432368C3F86C2570
:10A92000D5E900312268C2F80C35C2F814152B7D28
:10A93000012B73D009EB070206EB8203C3F80480F6
:10A940002B6946F82230B8F1000F47D021682B7FE1
:10A950000022C1F81021D1F810110191019921684C
:10A96000C1F82021D1F82011029102992168C1F883
:10A970002421D1F82411039103992168C1F84421BD
:10A98000D1F84411049104992168C1F85821D1F8F3
:10A9900058210592059A22683D49C2F8041322689D
:10A9A00042F3073100294FEA123230DB01F16041F6
:10A9B0005B0101F56141DBB281F80033226842F3AB
:10A9C0000733002B4FEA123109DB324D5B090122BC
:10A9D00001F01F0102FA01F145F8231022684F44EB
:10A9E00006EB87060121002386F820100821C2F813
:10A9F0000015C6E90633736107B0BDE8F083112086
:10AA000007B0BDE8F083082007B0BDE8F083224915
:10AA100002F00F025B01DBB28B54CFE7AB68591C2D
:10AA20000BD01F2B86BF03F01F0318494FF0A04126
:10AA300003F5E073002241F82320EB685A1C1AD07A
:10AA40001F2B8ABF11494FF0A04103F01F030122C1
:10AA500002FA03F3C1F80835EB681F2B88BF03F037
:10AA60001F0303F5E0738CBF08494FF0A041032298
:10AA700041F82320EB682268A968C2F80835C2F8BB
:10AA8000101557E75034002009A7020000030050BA
:10AA90001003420000E100E014ED00E001F0604C22
:10AAA000BCF1005F30D170B590F804E0264C0EEB9D
:10AAB000CE0C04EB8C0C0346DCF8140082B04FEA99
:10AAC000CE0500283BD1CCF81420CCF808101A6829
:10AAD000C2F82001D2F820210192019A1A68C2F826
:10AAE0005801D2F858210092009A1A68DCF81460D4
:10AAF000C2F84415C2F848651A6801219160DCF873
:10AB000004201AB102B070BD102070471A6800E02E
:10AB1000C0B9D2F82011D2F858010029F8D088B96C
:10AB20000121D1601B68D3F85821002AFBD005EB26
:10AB30000E0304EB830300225A6102B070BD1120A2
:10AB400002B070BD0F20F2E7503400200379054AAF
:10AB500003EBC30302EB83035869003818BF0120DD
:10AB6000704700BF5034002001F06043B3F1005F34
:10AB700062D1F0B490F804C0484C0CEBCC0304EB69
:10AB8000830382B05E684FEACC0326B105684FF4B8
:10AB90000477C5F80873634404EB83039D695DBBC8
:10ABA0009A61DD61D9600368C3F81051D3F81031A0
:10ABB0000193019B0368C3F84451D3F844310093D7
:10ABC0000368009DC3F83415C3F8382503680122D3
:10ABD0001A6090F804C00CEBCC0304EB83034FEA3B
:10ABE000CC055B6853B303684FF40472C3F80423C5
:10ABF000002002B0F0BC7047DD69002D37D119612B
:10AC0000DA610368C3F81051D3F810310193019B46
:10AC10000368C3F84451D3F8443100930368009D9E
:10AC2000C3F83415C3F838250268D2F8003243F06F
:10AC30002003C2F80032CCE710207047036801E01F
:10AC4000E9B910BBD3F81021D3F84411D3F824018B
:10AC5000002AF5D0654400284FF0000304EB85047A
:10AC600018BF03209942A36118BF0F20C1E796B116
:10AC700003684FF40472C3F804231120B9E7654454
:10AC800004EB85040F20A261B3E7654404EB85045F
:10AC90000320A161ADE71120ABE700BF50340020D5
:10ACA0000B7B0246032B1FD8DFE803F0262014029B
:10ACB0008B68580326D48B685B0315D4D2F84C35C7
:10ACC0004969994210D000200621C2F80005C2F857
:10ACD00000157047D2F84C3508699842F3D1D2F884
:10ACE0003C3549699942EED101207047D2F83C3594
:10ACF00009699942E7D1F7E7D2F84C3509699942D9
:10AD0000E1D1F1E7D2F84C3508699842DBD1D2E7BE
:10AD1000F0B56F4BD3F824218DB052B10022C3F8A7
:10AD20002421D3F824210592059AD3F80421002A7E
:10AD30007ED0674D674CD5F80431002B36D0002308
:10AD4000C5F80431236AD5F8042104925806049A00
:10AD500004D494F82E20002A00F0938013F0040508
:10AD60005FD15D4FDFF868C10FCF07AE0FC63B68FC
:10AD70003360CCF86051DCF860310293029BCCF870
:10AD80005C51DCF85C3194F830600393039B002E37
:10AD900072D14F4B0022C3F80022A2604F4AC3F881
:10ADA00008234F4B0822C3F880211BE0C5F8483127
:10ADB000D5F84821237B0192019A002B6BD104F135
:10ADC0000C0EBEE80F000DF11C0CACE80F0094F85F
:10ADD0003060DEF80030CCF80030002E41D0256A1B
:10ADE00005F004053A4AD2F8C434C2F8C4349907CD
:10ADF0000FD501238DF818300EB984F82F6015B1E6
:10AE000094F82E301BB1D4E9003106A898470DB054
:10AE1000F0BD5A0708D4DB074FD503238DF818304F
:10AE2000EAE794F83060DDE702238DF81830E3E7B5
:10AE3000284C0222A168C3F80813A260A268C3F8D4
:10AE40000423D3F860211AB1D3F800329D0503D44E
:10AE50001F4B01221A625A61012384F82E300DB073
:10AE6000F0BD1E4A1E4BC5F80062A660C5F8082357
:10AE70000822C3F88021B2E794F82E30002BB1D01D
:10AE800087E721462846FFF70BFF80F00100236A81
:10AE900084F82E0062E7114B4FF4007140F2022259
:10AEA000C5F80012A260C5F80833A268C5F80423EB
:10AEB0000123AB602B620DB0F0BD94F82E301BB1B6
:10AEC00004238DF8183097E78DF8183094E700BF09
:10AED00000300040743400208034002002029C01C5
:10AEE00000E100E0F0B54FF040238DB0D3F824210D
:10AEF00052B10022C3F82421D3F824210592059AE7
:10AF0000D3F80421002A7FD04FF0402C684CDCF8A5
:10AF10000431002B37D00023CCF80431656DDCF808
:10AF2000043104936806049B04D494F86230002B27
:10AF300000F0948015F004055FD15E4F0FCF07AE8F
:10AF40000FC64FF0402C3B683360CCF86051DCF802
:10AF500060310293029BCCF85C51DCF85C3194F8D0
:10AF600064600393039B002E73D14FF040230022B3
:10AF7000C3F80022E263504AC3F808234F4B102263
:10AF8000C3F8802119E0CCF84831DCF8482194F866
:10AF900040300192019A002B6BD104F1400EBEE8C3
:10AFA0000F0007AD0FC594F86460DEF800302B6029
:10AFB000002E43D0656D05F004054FF04022D2F815
:10AFC000C434C2F8C43499070FD501238DF8183062
:10AFD0000EB984F8636015B194F862301BB1D4E9FE
:10AFE0000D3106A898470DB0F0BD5A0708D4DB070D
:10AFF00053D503238DF81830EAE794F86460DCE752
:10B0000002238DF81830E3E7294C0222E16BC3F8E4
:10B010000813E263E26BC3F80423D3F860211AB18A
:10B02000D3F800329D0504D44FF0402301221A6268
:10B030005A61012384F862300DB0F0BD1E4A1F4BE7
:10B04000CCF80062E663CCF808231022C3F8802114
:10B05000B0E794F86230002BAFD086E704F13401FA
:10B060006046FFF71DFE80F00100656D84F8620008
:10B0700060E7114B4FF4007140F20222CCF800124D
:10B08000E263CCF80833E26BCCF804230123CCF85C
:10B090000830CCF820300DB0F0BD94F862301BB110
:10B0A00004238DF8183093E78DF8183090E700BF2F
:10B0B00074340020B434002002029C0100E100E05E
:10B0C0002DE9F84F90F804A0DFF80C81342707FB36
:10B0D0000AF708EB07069B4696F82D30002B66D141
:10B0E000394B05460C46006853F82A109146FEF786
:10B0F00079FE002865D148F80790B060C6F804B022
:10B1000086F82F0086F83000637B86F8323023689B
:10B110001F2B86BF03F01F032C4A4FF0A04203F5FC
:10B12000E07340F20C6142F8231063681F2B86BF66
:10B1300003F01F03254A4FF0A04203F5E07340F2ED
:10B140000C6142F82310D4E900212B68C3F80825CC
:10B15000C3F80C15A268C3F82425B9F1000F1ED05E
:10B160002A68237B42F3073100294FEA123221DBA0
:10B1700001F160415B0101F56141DBB281F800330F
:10B180002B681A0B43F30733002B08DB104C5B09C9
:10B19000012102F01F0201FA02F244F823203423B5
:10B1A00003FB0A88012388F82D30BDE8F88F0820BA
:10B1B000BDE8F88F074902F00F025B01DBB28B5448
:10B1C000DEE71120BDE8F88FC00203000003005045
:10B1D00000E100E014ED00E0743400200279064B39
:10B1E00001684FF0340C0CFB023306200222C1F838
:10B1F000000583F82D207047743400202DE9F043BA
:10B2000089B090F804C09DF84040764E002C046848
:10B210004FF0340000FB0C604FF0000580F82E501A
:10B2200002F0604514BF20270027B5F1005F62D10E
:10B230006D4DC4F8085390F82FE00EF0FF05BEF1F5
:10B24000000F40F0B3800CEB4C0E0CEB8E0E06EBB7
:10B250008E084FF0010980F82F9088F80C50C4F840
:10B260008815C4F804514173D4F80411019101996F
:10B27000C4F82451D4F8241102910299C4F8605101
:10B28000D4F8601103910399C4F84851D4F84811D7
:10B290000491049980F83050C4F85055C0E9043541
:10B2A000C4F84055C0E90625C4F844254FEA8E0E7F
:10B2B0000762C4F84835002F55D14FF40073C4F825
:10B2C0000032022383603423012103FB0CF321624B
:10B2D000A160F258F518E2B1AB6843F00203AB602D
:10B2E000AB6843F40073AB60AB68C4F80433002070
:10B2F00009B0BDE8F083102009B0BDE8F083C305B4
:10B300002162616105D5C4F84821D4F8483106931B
:10B31000069BD4F84831EBB1D4F804312BB1C4F812
:10B320000421D4F804310593059BD4F8243143B3A8
:10B330000123C4F82421D4F8240107900798D4F8F5
:10B340006051D4F80002B5B921626161D4F8483186
:10B35000002BE1D1D4F80431002BE0D1D4F8240142
:10B360000028D6D0E5E74FF48073C4F800324FF4DC
:10B3700080238360A7E78705C1D5C505C3D4002B0B
:10B38000C7D03423D4F8C424C4F8C42403FB0C6C01
:10B3900000238CF82F3082B906EB0E012046FFF710
:10B3A0007FFC002814BF00200320A5E78368C4F8B1
:10B3B0000433112009B0BDE8F08312F0010F18BF6B
:10B3C0004FF4024048F2012308BF032012F0020F9D
:10B3D00018BF184648F2022312F0040F18BF18468F
:10B3E0008AE700BF7434002002029C012DE9F0437B
:10B3F0000579754F04684FF0340E0EFB05FE07EB20
:10B400000E0C00208CF82E0002F06040B0F1005FBE
:10B4100089B040F0C2806D48C4F808039CF82F60E2
:10B4200006F0FF00002E40F0BC8005EB450605EB62
:10B43000860607EB86094FEA860801268CF82F60FE
:10B4400089F80C60C4F88815C4F804018CF80D1054
:10B45000D4F8041101910199C4F82401D4F82411FD
:10B4600002910299C4F86001D4F860110391039924
:10B47000C4F84801D4F8481104910499C4F850055F
:10B48000CCE90430C4F84005C4F83425C4F8383594
:10B490004FF48053C4F800320223CCE906208CF824
:10B4A0003000CCF82000CCF808302662266057F82F
:10B4B0000E206AB3DCF8083043F00203CCF8083001
:10B4C000DCF8083043F40073CCF80830DCF80830BE
:10B4D000C4F8043309B0BDE8F083D4F80431002B7C
:10B4E0004BD0C4F80421D4F804310593059BD4F85B
:10B4F00024311BB30123C4F82421D4F8241107916B
:10B500000799D4F86001D4F8001280B92662666108
:10B51000D4F84831002BE0D0D4F80431002BE6D029
:10B52000C4F80421D4F804310593059BDFE711F436
:10B53000007F27D0C90529D4002BE9D03423D4F8C3
:10B54000C424C4F8C42403FB0575002385F82F30F8
:10B550007AB312F0010F18BF4FF4024048F20123F2
:10B5600008BF032012F0020F18BF184648F202234A
:10B5700012F0040F18BF1846ACE7D4F824110029C4
:10B58000C6D0B8E7CB0526626661C1D5C4F84821AC
:10B59000D4F848310693069BBAE7102009B0BDE8FD
:10B5A000F083DCF80830C4F80433112009B0BDE89A
:10B5B000F08307EB08012046FFF772FB002814BF59
:10B5C0000020032086E700BF7434002002029C01A3
:10B5D0002DE9F041674B684FD3F8042188B012B3CE
:10B5E0000021C3F80411D3F8040197F82E2000902D
:10B5F0000098002A3BD17868F968069038898DF860
:10B600001420ADF81C00002900F0A180388B79606F
:10B61000012178833881FA6019603B6805A8984752
:10B62000002387F82F3097F82E3023BB514BD3F8E7
:10B6300010216AB10022C3F81021D3F8103103930E
:10B6400002218DF814103B6803993A7405A89847B5
:10B65000484BD3F8144164B30022C3F81421D3F843
:10B6600014310593059B3A7408B0BDE8F08197F852
:10B670002F30002B4ED13F4BD3F80021002AD5D0DC
:10B680000020C3F8000197F82D107A8BD3F8004101
:10B6900001948A42019C8CB24BD85BD0354B00227E
:10B6A000C3F80421D3F804210292012202995A60BE
:10B6B000BCE77E69002ED7D04FF000480125B6FACE
:10B6C00086F101F146039B0003F1804202F5E0425E
:10B6D000A3F58C73D2F800E083F0040028FA01F19E
:10B6E000C0F3800CDB0805A826EA0106BEF1000FB6
:10B6F0000BD01460126804928DF818303A688DF8F7
:10B7000014508DF819C0049B9047002ED7D108B073
:10B71000BDE8F081FB6878683A898DF814100690CE
:10B72000ADF81C209BB13A8B7A837B603A81F9603B
:10B7300073E73889121B92B280B27A83801A7A68D2
:10B7400002EB4002C3F82C26C3F83016A6E700230C
:10B750003B7462E7FA6842B17883012087F82F00D2
:10B76000C3F82C26C3F8301698E7012387F82F304A
:10B770007A8393E700700040DC34002030B4264A1E
:10B7800092F82C4084B0002C42D1244B05781160F3
:10B79000C3F8F0554178C3F8F415C17882F82E103B
:10B7A00001256FF00041147482F82C5082F82D406E
:10B7B000546182F82F40C3F80813C3F80441D3F84A
:10B7C000041103910399C3F80041D3F800110291C9
:10B7D0000299C3F814418178D3F8140101900198BB
:10B7E0000F484901C9B280F807138021016092F81F
:10B7F0002E200221C3F804133AB9084B012200207D
:10B80000C3F8002504B030BC7047C3F80453F4E714
:10B81000082004B030BC7047DC34002000700040C9
:10B8200000E100E010B42A4B1C7C002C4BD100F14D
:10B830000C0203EB42042479002C3ED003EB4203BC
:10B84000B1F807209A804B788A7891F800C01B01E4
:10B85000120202F4E06203F0300313430CF003021F
:10B8600091F803C04FEA0C3C13430CF4805C0A7956
:10B8700043EA0C0391F805C0120402F4E0224FEAF7
:10B880000C5C13430CF4801C8A7943EA0C034FEAE6
:10B89000001C12060CF1804C0CF5E04C02F080729A
:10B8A0001343CCF81835CB79097ACCF81415CCF8B9
:10B8B000103500205DF8044B704793F82D4001349B
:10B8C00083F82D40BAE711205DF8044B704700BFA4
:10B8D000DC340020044B054A93F82E00044B00286A
:10B8E00014BF104618467047DC340020007000403A
:10B8F0000470004070B42F4A2F4B1224C2F8084342
:10B9000093F810C0BCF1020F83B04CD01C7C012C0A
:10B9100023D00224C2F8044393F82E405860012536
:10B9200000261D74DE601981C2F82C0664B9C2F8C5
:10B930003016C2F80041D2F800310193019B156026
:10B94000204603B070BC7047598393F82D30C2F87D
:10B950003036304603B070BC7047DC6834B1022327
:10B960001120C2F8043303B070BC704793F82E4026
:10B97000D86019833CB10F4B02220020C3F8042386
:10B9800003B070BC7047D2F80031002BFBD000230D
:10B99000C2F80031D2F800310093009BC2F82C06A7
:10B9A000C2F83016E7E71120C2F8044303B070BCB8
:10B9B000704700BF00700040DC3400200220FDF71B
:10B9C000F5BA00BF2DE9F04105460C46FDF712FB24
:10B9D00020B9012C1AD0022C15D00CB1BDE8F08191
:10B9E0001448FCF743F8144A144B94781B78A3428C
:10B9F000F4D1002CF2D0124B1B68002BEED0204665
:10BA0000BDE8F04118470C4B5C78F2E70A4E7378BA
:10BA100034781BB9094BB2781A70EAE7094F054828
:10BA20003A464FF40041FBF7C5FF0028F2D13D70C4
:10BA3000F0E700BF3035002070350020843500204D
:10BA40007C3500200C35002010B50078FDF7D2FAC7
:10BA500040B9054B587828B1044B1B6813B1BDE8B9
:10BA60001040184710BD00BF703500207C35002005
:10BA700038B5B14D2B78044653B1B04B1B7800203C
:10BA80002870002B4AD0FDF76BFA0120FDF768FA09
:10BA9000172C00F24E81DFE814F0E400630063002D
:10BAA0009C00A900B500C70094005000440050005D
:10BAB00044007A0018001800180018001800D5007B
:10BAC0000B018100F6005C005C009D48FBF7CEFF97
:10BAD000D4F11104054600F01681002840F01381CE
