:020000022000DC
:1060000000000420B5620200DD620200DF620200CF
:10601000E1620200E3620200E562020000000000AB
:10602000000000000000000000000000E762020025
:10603000E962020000000000EB620200ED62020073
:10604000C58E0200EF620200D1970200EF620200EB
:10605000EF620200EF620200D192020065A6020028
:10606000EF620200EF620200EF620200EF620200E4
:10607000EF620200EF620200EF620200EF620200D4
:10608000EF620200E9730200EF620200EF620200B9
:1060900089740200EF62020059D60200EF6202002A
:1060A000EF620200EF620200999A0200EF620200C2
:1060B000EF620200EF62020000000000000000003A
:1060C000EF620200EF620200EF620200EF62020084
:1060D000EF620200EF620200EF620200EF62020074
:1060E000EF620200EF620200EF62020000000000B7
:1060F00000000000EF62020000000000EF620200FA
:10610000000000000000000000000000000000008F
:10611000000000000000000000000000000000007F
:10612000000000000000000000000000000000006F
:10613000000000000000000000000000000000005F
:10614000000000000000000000000000000000004F
:10615000000000000000000000000000000000003F
:10616000000000000000000000000000000000002F
:10617000000000000000000000000000000000001F
:10618000000000000000000000000000000000000F
:1061900000000000000000000000000000000000FF
:1061A00000000000000000000000000000000000EF
:1061B00000000000000000000000000000000000DF
:1061C00000000000000000000000000000000000CF
:1061D00000000000000000000000000000000000BF
:1061E00000000000000000000000000000000000AF
:1061F000000000000000000000000000000000009F
:1062000010B5054C237833B9044B13B10448AFF3F0
:1062100000800123237010BDA82B00200000000087
:1062200034FB020008B5034B1BB103490348AFF32D
:10623000008008BD00000000AC2B002034FB0200F1
:10624000154B002B08BF134B9D46A3F5803A002148
:106250008B460F461348144A121A07F0E7FB0F4B00
:10626000002B00D098470E4B002B00D09847002001
:10627000002104000D000D48002802D00C48AFF3A7
:10628000008007F0A1FB2000290005F0EDFA07F0DF
:1062900087FB00BF00000800000004200000000091
:1062A00000000000A82B002010410020000000008A
:1062B000000000000649074A074B9B1A03DD043B18
:1062C000C858D050FBDC02F0FBFAFFF7B9FF000022
:1062D0004CFC0200E82A0020A82B0020FEE7FEE785
:1062E000FEE7FEE7FEE7FEE7FEE7FEE7FEE7FEE786
:1062F000704700BF00B583B0044B0093044A4023AD
:1063000000F036F803B05DF804FB00BF156302002F
:10631000C82B002002B32DE9F843114B114E8846DB
:10632000144643F0010903270025224608EB050126
:10633000002005F0EFFB03461D444FF47A40E41AB9
:1063400023B9337833B1C847013F06D001233370F6
:10635000002CEAD1BDE8F88370473770BDE8F883B8
:1063600020ED0200C42B0020704700BF05F0B0BC38
:10637000F0B595B000241D460E460846174602F0BB
:1063800061F9304623460822099505A91A9D089708
:106390000D950A948DF82C400C9402F0B7F99DF8F5
:1063A00014308DF81140DDE9061003F00302012AD4
:1063B000CDE9020128D0022A04D0304602F046F985
:1063C00015B0F0BDBDF81650C3F3C2038DF8103000
:1063D000C5F389150827082D2C4628BF08243B46FD
:1063E00022460EA9304602F091F92D1B214608AB3A
:1063F00002AA0EA8274400F011FD002DEBD1304673
:1064000002F024F915B0F0BDBDF81470059DC7F376
:106410008312C3F3C2040EA93046920008238DF8FC
:106420001040C7F3831702F071F9C5F3952508AB47
:106430003A4628460EA9009302AB00F077FC30469E
:1064400002F004F915B0F0BD08B5FFF78FFF04485E
:10645000042100F0E9FB034B01225A7108BD00BF83
:1064600034FC0200E82A0020064B074810B5002241
:106470001A7002F09BF8044610B9044802F0BCF907
:10648000204610BDD82C002098FB02005CED0200D5
:1064900099B10E4B0E495B1ADB0815D030B40022BF
:1064A0000C4D02E0013293420BD035F82240844279
:1064B000F8D151F8320030BC7047054951F830002E
:1064C0007047002030BC70471846704734FC02000B
:1064D000ACFB0200A42B0020094B013903EBC000E8
:1064E00003290BD8DFE801F00402080604207047F6
:1064F000022070474079704700797047002070474C
:10650000ACFB02002DE9F0438C4CD4E901239A4204
:1065100085B060D00023C4F81834BFF34F8FA5684E
:10652000EAB2D31C04EB830114F82330580718D5C2
:1065300066680B7803F00303012B42D0022B03D1D2
:106540004B88023505EB9315EAB2D4F81804D31C36
:1065500004EB830128B9AE4239D914F823305B0724
:10656000E7D404EB82026B1CD2680192DBB204EB2D
:10657000830302F00302DB680293022A05F102069C
:106580002DD0012A00F08D80D4F810543DB12B6835
:1065900028469B689847EB681D68002DF7D168482E
:1065A000684B6949C01AC008000440F0020000F0BE
:1065B000D1F8D4E90130C01A18BF012005B0BDE8F8
:1065C000F0830B880235C3F383131D44BCE7A66038
:1065D00005B0BDE8F083002005B0BDE8F083BDF84C
:1065E00006305A48C3F389184546502D28BF502518
:1065F00065F38F1305F10801ADF8063001F0D8FFFF
:1066000007460028C0D002F01DF8002301A9082287
:10661000384602F047F8F343DBB20133B5EB830FA2
:106620004FEA8309F1B277D9A5EB0905033104EBF1
:10663000810108234A463846EDB202F033F8444956
:106640002A4609F10803384602F02CF808F103083D
:1066500006EB9806D4F81834002B6AD1D4F81054FD
:1066600065B1EB685A7928463946002A5DD02B6817
:106670001B689847EB681D68002DF2D1384601F081
:10668000E5FF00230DF103008DF8033001F066FBF8
:10669000D4F8183403B9A6609DF8030001F084FB18
:1066A00087E7BDF804302948C3F38312062A28BFC0
:1066B0000622911C62F389138900ADF8043001F0C1
:1066C00077FF074600283FF45FAF01F0BBFF0023D0
:1066D000082201A9384601F0E5FFBDF8043013F4A3
:1066E000707FB7D06FF00108A8EB05080825F1B25C
:1066F00003312B46042204EB8101384601F0D2FF1E
:10670000BDF80420013608EB0603C2F383129A4257
:1067100005F10405EBD89DE703312A4604EB81011E
:106720000823384601F0BEFF90E71D68002D98D180
:10673000A4E7384601F08AFF3BE700BFD82C0020D1
:10674000ECFB0200ACFB020044ED020098FB0200EF
:10675000E42C00202DE9F04F5E4C87B00023064664
:106760000DF10B008DF80B300F4601F0F7FAD4E96C
:10677000015303F580735B1B012B7DD804F21C4889
:1067800004F5836A04F214491AE0BDF80E30C3F32D
:1067900089130333090C0BEB930B4846019101F06D
:1067A0008FFB0199002839D04046C4F808B001F0A9
:1067B0005BFBD4E9013202F58072D21A012A5CD85F
:1067C0000121404601F050FB504601F069FB48466C
:1067D00001F066FBA368DAB2D11C04EB810014F867
:1067E000211001F0040C490728D404EB8202591C43
:1067F000D2680392C9B204EB810102F00302012ABC
:10680000C96803F1020B30D0022ABED000214846ED
:10681000019101F055FB01990028C5D14046C6E71A
:1068200043880EEB9313DAB2D11C04EB810014F809
:10683000211001F0040CBCF1000FD6D0017801F05A
:10684000030101290BD0022903F1020E02F1030119
:10685000E6D004EB8100BCF1000FEFD1C5E7028860
:106860000233C2F383121344DDE7BDF80C30C3F3E7
:106870008313090C9B4490E72B46DAB203320233B0
:1068800005219DF80B0044F82210636001F08CFA9A
:106890000021114801F0BEFA80F31000F1006B1CDA
:1068A00001F03801DBB2EDB204EB830341F00101EA
:1068B0000004033540EA164641EA8727DE6044F8C3
:1068C000257023781BB1FFF71DFE0028FBD107B010
:1068D000BDE8F08FD82C0020F43000202DE9F04FD7
:1068E000634C87B0002306460DF10B008DF80B308A
:1068F0000F46904601F032FAD4E9015303F5807354
:106900005B1B022B7FD804F21C4904F5836B04F255
:10691000144A1BE0BDF80E20C2F389120332090CA1
:1069200003EB92035046CDE9003101F0C9FA019919
:1069300000283AD0009BA360484601F095FAD4E9BC
:10694000013202F58072D21A022A5DD8012148462E
:1069500001F08AFA584601F0A3FA504601F0A0FA75
:10696000A368DAB2D11C04EB810014F8211001F005
:10697000040C490729D404EB8202591CD268039203
:10698000C9B204EB810102F00302012AC96803F1D4
:10699000020331D0022ABDD000215046CDE900319A
:1069A00001F08EFA01990028C4D14846C5E7438812
:1069B0000EEB9313DAB2D11C04EB810014F8211012
:1069C00001F0040CBCF1000FD5D0017801F00301F7
:1069D00001290BD0022903F1020E02F10301E6D0D6
:1069E00004EB8100BCF1000FEFD1C4E70288023351
:1069F000C2F383121344DDE7BDF80C20C2F3831207
:106A0000090C13448EE72B46DAB2033203334521D7
:106A10009DF80B0044F82210636001F0C5F9AB1C2F
:106A2000DBB204EB830300211248C3F80C8001F0B1
:106A3000F1F980F31000F1006B1C01F03801DBB2BA
:106A4000EDB204EB830341F041010004033540EA59
:106A5000164641EA8727DE6044F8257023781BB18B
:106A6000FFF750FD0028FBD107B0BDE8F08F00BF55
:106A7000D82C0020F43000202DE9F04F684C89B06C
:106A8000002506460DF113001F468DF81350884669
:106A9000039201F063F9D4E9015303F580735B1BA2
:106AA000032B00F2828004F21C4904F5836B04F28C
:106AB000144A1BE0BDF81620C2F389120332090CF8
:106AC00003EB92035046CDE9013101F0F9F9029947
:106AD00000283BD0019BA360484601F0C5F9D4E9EA
:106AE000013202F58072D21A032A5FD8012148468A
:106AF00001F0BAF9584601F0D3F9504601F0D0F947
:106B0000A368DAB2D11C04EB810014F821C01CF098
:106B1000040F0CF0040128D104EB8202591CD26846
:106B20000592C9B204EB810102F00302012AC9688F
:106B300003F1020332D0022ABCD000215046CDE935
:106B4000013101F0BDF902990028C3D14846C4E7DC
:106B500043880EEB9313DAB2D11C04EB810014F8D6
:106B6000211001F004010029D6D090F800C00CF0EB
:106B7000030CBCF1010F0BD0BCF1020F03F1020EAC
:106B800002F1030CE4D004EB8C000029EDD1C3E743
:106B900002880233C2F383121344DCE7BDF81420E9
:106BA000C2F38312090C13448CE72B46DAB203328A
:106BB000043385219DF8130044F82210636001F02E
:106BC000F3F8AA1CEB1CDBB2D2B204EB830C04EB8F
:106BD0008202039B1348D3600021CCF80C7001F0B3
:106BE00019F980F31000F1006B1C01F03801DBB2E1
:106BF000EDB204EB830341F081010004033540EA68
:106C0000164641EA8821DE6044F8251023781BB13E
:106C1000FFF778FC0028FBD109B0BDE8F08F00BF7A
:106C2000D82C0020F430002030B4154DD5F81014C5
:106C30000446002071B10B4601E01B6853B1DB68CC
:106C40001A798242F9D101300A28F3D14FF0FF308E
:106C500030BC7047E3681871D5F810344BB1DA686E
:106C6000E36812681A60D5F81034DB681C6030BC29
:106C70007047C5F81044E268136030BC704700BF2D
:106C8000D82C002038B5084BD3F8104401251D70CE
:106C90004CB1E3685D71236820465B689847E36800
:106CA0001C68002CF5D138BDD82C002030B5C38825
:106CB00085B004460D461BBB217A05291ED0627A99
:106CC00082B9134AA08852F8212003920021FFF7CD
:106CD000DFFB039A0F490346284605B0BDE8304064
:106CE00001F06AB9A088FFF7F7FB0B4B0B4953F88B
:106CF0002020284601F060F9217AE2E705B030BD96
:106D0000074A00920749084A284601F055F9D3E797
:106D100034EE020094ED020010EE020090ED02004D
:106D200088ED020070ED020068ED02002DE9F043ED
:106D300085B04FF0000C0C9C814694F80C8084F8D0
:106D40000CC00E461746184621461D46FFF7AEFFFB
:106D5000062F09D8DFE807F0042E343B444F1F000C
:106D60004946204601F028F92B7A052B05D06B7A8D
:106D70005BB92749204601F01FF9204601F010F9C0
:106D800084F80C8005B0BDE8F083224A22492046F1
:106D900001F012F9EDE7D6E90413F2680393B36842
:106DA0000291CDE900324946D6E90023204601F0A0
:106DB00003F9D9E732684946204601F0FDF8D3E7E8
:106DC000D6E900234946204601F0F6F8CCE7B3683F
:106DD0000093D6E900234946204601F0EDF8C3E7C9
:106DE000D6E9023201920093D6E9002349462046B3
:106DF00001F0E2F8B8E7D6E90321B3680291CDE9E2
:106E000000324946D6E90023204601F0D5F8ABE729
:106E1000A0ED020088ED020090ED0200082900D9E3
:106E200070472DE9F04F9B4683B000241B7B8BF805
:106E30000C400D4606465946104690460193DFF831
:106E4000D0902C4FFFF732FF05E0325D013401F0A6
:106E5000B3F8082C09D0A54239465846F5D849461A
:106E6000013401F0A9F8082CF5D12349DFF8A490EA
:106E7000224C234F584601F09FF84FF0000A0DE0D6
:106E8000D15D11F0970F08BF2E22214658460AF116
:106E9000010A01F091F8BAF1080F10D0554505D953
:106EA00016F80A207E2AEBD92E22EEE749465846EC
:106EB0000AF1010A01F080F8BAF1080FEED198F852
:106EC0000830052B02D098F8093063B90D495846AF
:106ED00001F072F8584601F063F8019B8BF80C3012
:106EE00003B0BDE8F08F084A0849584601F064F83D
:106EF000ECE700BFA4ED0200B0ED0200B4ED02002B
:106F000099F90200A0ED020088ED020090ED020068
:106F1000ACED02009CED020038B5174B1D783DB377
:106F2000164B1968C0B200230C4604E00133AB4293
:106F300004F108041CD011F833209042F6D102F07D
:106F4000B7F96378A3F10103B3FA83F35B098342D2
:106F500000D038BD0A4BD3E900231343F9D1094BC4
:106F6000094819680022BDE83840490800F0ECBC27
:106F700000231B78FFDE00BF90310020E0310020AD
:106F8000B831002094310020983100202DE9F04FD5
:106F9000DFF8548298F8003083B0002B00F019819C
:106FA000DFF848928C4F8D4E00254FF0010A3C6867
:106FB00014F8350002F07CF904EBC50314F83540F1
:106FC0005B784FEA540C14F0010E16F80C10A3F184
:106FD0000103B3FA83F314BF0A0901F00F025B093E
:106FE000042A00F2A080DFE802F0725D3220030084
:106FF000834240F0AB80BEF1000F0CBFF0230F23A3
:1070000003EA01030CBF03213021194306F80C10D9
:1070100098F8002001359542C9DBD9E900231343D4
:1070200040F0CD8003B0BDE8F08F83427BD0BEF14D
:10703000000F0CBFF0230F2303EA01030CBF042150
:107040004021194306F80C1098F80020E2E783422B
:107050006CD1BEF1000F0CBFF0230F2303EA010334
:1070600098F800200CBF03213021194306F80C10BA
:10707000002AD2D0D7F800C00023614603E0934233
:1070800001F10801C6D01CF83300A04203F101034E
:10709000F5D14B68002BBDD020460121984798F8C8
:1070A0000020B7E7834219BF0020034602232020B7
:1070B000BEF1000F0CBFF0220F2201EA020118BF3F
:1070C00003460B4306F80C3098F80020A2E78342F1
:1070D00029D1BEF1000F14BF0F23F02303EA0103EF
:1070E00014BF1021012119430DF107004FF00003D7
:1070F00006F80C108DF8073000F030FED9E90032A8
:10710000A4F12001C4F120000AFA01F12AFA00F0EA
:1071100001430AFA04F4114323439DF80700C9E927
:10712000003100F041FE98F8002073E7BEF1000F37
:107130000CBFF0230F2303EA01030CBF0121102130
:10714000194306F80C1098F8002063E7BEF1000F11
:1071500014BF0F23F02398F80000194006F80C1014
:1071600098B1D7F800C00023624603E0834202F1E1
:1071700008020AD01CF83310A14203F10103F5D133
:10718000536813B10021204698474FF000030DF1DA
:1071900007008DF8073000F0E1FDD9E90032A4F1D5
:1071A0002001C4F120000AFA01F12AFA00F001439B
:1071B0000AFA04F422EA010123EA0403ADE7084BCA
:1071C000084819680022490800F0BEFB03B0BDE87A
:1071D000F08FDFF8189020E7E0310020C031002068
:1071E000943100209831002090310020B8310020E7
:1071F000092A43D92DE9F04182B0144606460D46CE
:1072000001F0EEFE002832D0214A2249224B1660BE
:107210000D7022481C600021202206F007FC204B44
:10722000002000216C1EC3E90001E4B245B3DFF881
:107230007C8006EBC404032702E0A64220D01C4653
:107240009DF80630A57820788DF8047023F00703A8
:10725000424601A98DF806308DF8055001F0CAFEAE
:10726000A4F108030028E8D002B0BDE8F08101F0E5
:107270005FFE0028C8D002B0BDE8F081072070474B
:10728000084A0948002100F04DFB02B0BDE8F0813A
:10729000E03100209031002094310020C0310020E6
:1072A000B83100208D6F020054EE0200196F020009
:1072B00070B5084D2B785BB1074E0024336801216F
:1072C00013F8340001F088FF2B780134A342F5D87D
:1072D000002070BD90310020E031002000B585B065
:1072E0000346002101AA44F20100CDE901110393F4
:1072F00000F004F805B05DF804FB00BF10B572B6ED
:10730000FFF7C0FCFFF7FEF80028FBD1104B114C33
:107310001149E41AE408240444F00100FFF71AFAC2
:107320000E4B1B68DB0700D500BE0D4944F0020080
:10733000FFF710FABFF34F8F0A490B4BCA6802F4EC
:10734000E0621343CB60BFF34F8F00BFFDE700BF88
:10735000ACFB0200ECFB020058EE0200F0ED00E096
:1073600064EE020000ED00E00400FA0559B142B1FC
:10737000531E1A4005D1826001608380C2601046AE
:107380007047092070470E20704700BF10B4846812
:10739000C26803468088121B904203D204205DF825
:1073A000044B7047DA681C6802400020A154DA6878
:1073B0000132DA605DF8044B704700BF0346806815
:1073C000DA6890420DD010B498689A881C68024020
:1073D0000020A25C0A709A6801329A605DF8044B42
:1073E00070470520704700BFF8B52049204B0024A6
:1073F000C1F84041C1F84441C1F84841C1F84C418D
:10740000C1F80041C1F804411B6833B31948D1F8F1
:10741000045501681A686D1A25F07F45AA4227466F
:107420000DD8197CDE69AD1A144419B1D3E90520D1
:107430001F7490471EB133461A68AA42F1D90E490B
:107440000E4A0B7812789A4208D00D490D4A41F83D
:1074500023404FF48013C2F80031F8BD531CDBB257
:10746000022B08BF00230B70EFE700BF00100140A4
:107470000433002000330020FD320020FC320020C5
:10748000F432002000E100E02DE9F04FB44AB549A4
:1074900013780978994285B000F08E810133DBB210
:1074A000022B08BF0023B0481370B04A0568DFF80C
:1074B000D48252F82310D8F800606B1823F07F4371
:1074C0000360002E00F0C781002007460446844672
:1074D0003346AE4613E0D868DD69C3F800C0891AA8
:1074E000144438B10EEB040222F07F42C3E90120BC
:1074F000DF611F460120002D00F065812B461A68D0
:107500008A42E8D9002800F09181C8F800309946F5
:10751000521A1A6001230093954B964EDFF868A229
:1075200043F0010301934D464FF0000B002F31D083
:10753000D7E901303C46FF698B4ADFF850C2126838
:10754000991A21F07F41614500F2BC800B1823603D
:1075500000220121C4E90122E2612174002D00F022
:10756000A4802A689A4280F09980294605E0D1F8E3
:1075700000E09E4580F09D8072460846C9699C46A1
:107580009B1A0029F3D12360E161C4612C46254692
:10759000002FCDD17078337898421BD09C460CEBED
:1075A0004C0CB27806EBCC0C591CCBB29A429CF82E
:1075B0000420337004BF00233370022ADCF8084033
:1075C00000F0AC80032A00F09E80012A00F0828047
:1075D0008342E3D1BBF1000F01D1A9452BD07DB38C
:1075E000614A654B1468D3F80465644FD5F8008090
:1075F0003A78351B25F07F450335002A00F0E880F6
:107600005D4AA8452CBF4444641924F07F44C2F865
:107610004045D2F804359B1BA41B23F07F4324F084
:107620007F440333A34200F2EC8000238AF8003049
:1076300005B0BDE8F08F009B002BF6D0002DCFD118
:107640004F4B4FF40032C3F88020BFF34F8FBFF38E
:107650006F8F494E464C4FF480330127C6F84833AC
:107660003C43C6F808334FF43C607760A0473E4B7C
:10767000B7604FF43C601D60A047404B1D70002375
:107680008AF8003005B0BDE8F08F00230122C4E97C
:107690000033A360E36122743DB12A68C8F800405A
:1076A000D31A2B60E561254672E7C8F800402546ED
:1076B0006EE77244A2EB0C020A602360E161C461D0
:1076C0002C4664E7D31A23F07F438342DDD2C31AEA
:1076D00023603DE7227C002A7FF47AAFDCF80C308F
:1076E0006360DCF81000A060DCF81410E1609AF828
:1076F00000E0DCF81810A161BEF1000F3FF41CAFF0
:107700006260134618E7002D3FF446AF00232B7448
:10771000ED69002DFBD1C8F800503BE74DB1AC42FC
:107720003BD02A4601E0944206D01146D269002A95
:10773000F9D1002222744BE78C4230D0E0692268F4
:10774000C86128B3AC46036813440360AC451FD03E
:10775000002233787078227465464FF0010B37E7CA
:10776000FC320020FD32002000330020F4320020E3
:1077700080EE0200E431002000100140F1320020D0
:1077800000E100E004330020F0320020FEFF7F0023
:1077900000223378707822741AE729462A46D5F8F1
:1077A0001CC0C8F800C0BCF1000F41D0D0691268FD
:1077B000C8610028C7D1C9E7DFF8B4800027D8F82E
:1077C00000900097A8E6A946C8F800500090A3E6EC
:1077D000234A4FF480304FF40031C3F84403C3F818
:1077E0000403C2F8801111601E4A4FF00109C3F86A
:1077F00000904FF43C6042EA0903984787F80090F4
:10780000FEE6184BD2F80415C2F8401543F0010308
:107810004FF43C609847124B4FF40032C3F80021FC
:1078200000238AF8003005B0BDE8F08FB1466FE65E
:10783000CDE902210C4A0D4801239360C0F800C035
:107840008AF800304FF43C60019B9847DDE9022143
:10785000D8F800C0AAE70123B146374600935BE69B
:1078600000E100E080EE0200001001400033002043
:10787000043300202DE9F843214E4FF40033C6F8BD
:107880008030BFF34F8FBFF36F8F1E4D1E4FDFF859
:1078900090804FF480334FF001090024C5F848333D
:1078A00047EA0907C5F808334FF43C60C5F804906F
:1078B000B847C5F808904FF43C60C8F80040B84796
:1078C000124A134B13491C601470134B134A0C706B
:1078D0000B2114701C8099704FF48012C023C6F8DD
:1078E000802186F814333260C5F8084586F81133D4
:1078F000D5F80435C8F800302046BDE8F88300BF4D
:1079000000E100E00010014080EE0200F1320020B2
:1079100004330020FC320020E4310020FD3200203E
:1079200000330020074B9B783BB142B138B103686C
:10793000187C10B959745A617047082070470720A5
:10794000704700BFE43100202DE9F043274EB378A3
:1079500083B0002B3CD00446002839D0244B9146FC
:107960004A1F9A420D4637D843698BB3437C0027A0
:10797000012B0DF107000CBF8846B8468DF8077043
:1079800000F0ECF97378B0783278591CC9B28842AB
:1079900008BF39468A4223D003EB430306EBC303F7
:1079A0000120144A18719C60D2F804259DF8070044
:1079B0007170C3E90325C3E9058900F0F5F90E4BA1
:1079C0004FF480123846C3F8002103B0BDE8F083BD
:1079D000082003B0BDE8F083072003B0BDE8F083C2
:1079E0009DF8070000F0E0F90420EEE7E431002004
:1079F000FAFFFF000010014000E100E070B51B4EEF
:107A0000B37882B04BB3044638B343692BB3002537
:107A100005740DF107008DF8075000F09FF9737899
:107A2000B07831785A1CD2B2904208BF2A469142AF
:107A300016D003EB430306EBC30302219DF80700B6
:107A40009C601971727000F0AFF9094B4FF480120D
:107A50002846C3F8002102B070BD082002B070BDF6
:107A60009DF8070000F0A0F90420F4E7E4310020BD
:107A700000E100E030B50478012C83B004D0022C82
:107A80002DD0ECB103B030BD037A002B3CD043685D
:107A9000364D19782846FFF779FC002854D0344B2E
:107AA00001901B688DF8004068469847A968EB680C
:107AB000AA885B1A9A4227D22E4B01221A70E1E75C
:107AC0002D492E48FFF77AFC00282ED0284B0322A0
:107AD0001B688DF800206846984703B030BD284BDE
:107AE000284D1A78C168AA5C01918DF80040B2B99E
:107AF000254903F10C00012202F048FA1C4B6846AC
:107B00001B68984703B030BD1D4B1E4A1B781E49A9
:107B1000D35C0122A3B11D4802F00CFDB2E71A4963
:107B2000181D012202F006FDE8E71548154A037802
:107B3000D35CA3B110490122043002F093FCA1E709
:107B4000134802F023FA9DE7AA68EB689A42ADD089
:107B5000074B8DF800001B6868469847A6E7064962
:107B600001220C3002F09EF98CE700BF0C3300209C
:107B7000083300201C330020343300202033002041
:107B8000F02A00202040002030330020F42A00207A
:107B9000FC2A00202DE9F041334D8AB02A600029EB
:107BA00056D08A8880460D46304809681C46FFF743
:107BB000DDFB10B10AB0BDE8F081AA89A9682C48A4
:107BC000FFF7D4FB0028F5D12A4E98F810C02A4FB1
:107BD0000FCE02AD0FC596E80F0098F81160BCF10A
:107BE000000C85E80F0018BF4FF0010CD8F80430E6
:107BF0000193002ED8F81430D8F808508DF824409E
:107C000014BF0E220022D8F80C40D8F800608DF87E
:107C10001D200893194A019B8DF81CC002A9384603
:107C2000CDE904450396029301F0C4F80028C1D1C0
:107C3000D8F80030124A01331070BBD0114A3B789B
:107C4000D35C4BB11049381D012202F073FCB1E73F
:107C500007200AB0BDE8F0810B4907F10C000122B2
:107C600002F094F9A6E700BF083300200C3300208F
:107C70002033002088EE0200F02A0020757A0200EE
:107C80001C330020204000203033002070B5114DFF
:107C9000014611482E78FFF791FB04460EB92046A5
:107CA00070BD0E480E4A0378D35C00222A7053B18F
:107CB0000C490430012202F03DFC0028EFD0FFF710
:107CC0000DFB204670BD074901220C3002F05EF921
:107CD000F3E700BF1C3300200C330020F02A002003
:107CE000204000203033002070B501461548FFF7D2
:107CF0004DFB044608B1204670BD134D134E2B7842
:107D0000F35CA3B1281D02F007FC0028F3D1104951
:107D10000C48FFF753FB0028EDD12B780C49F35C9E
:107D200001224BB1BDE870400A4802F09BBB05F14F
:107D30000C0002F01FF9E8E7BDE87040064802F0C9
:107D4000B1B800BF20330020F02A002020400020DE
:107D500034330020F42A0020FC2A002070B4EFF312
:107D6000108472B60D4B9A68AAB90D490D4E0125C3
:107D70009D60D1F8805035401D60C1F88060D1F819
:107D800084505D604FF0FF33C1F88430027004B955
:107D900062B670BC704701230370F8E714400020FE
:107DA00000E100E0FC06FFBD094B9A687AB170B9AA
:107DB00010B4EFF3108172B6064A1C6814605C6858
:107DC0005460986001B962B65DF8044B7047704723
:107DD0001440002000E100E04A09012301F01F01E6
:107DE00000EB820003FA01F100F022B801F01F025B
:107DF00001234909934000EB8100D94300F026B8E4
:107E00004B0901F01F0150F82300C84000F00100A9
:107E1000704700BF10B4034653E8000F0A4643E81A
:107E2000002494F0000FF7D15DF8044B704700BFB9
:107E300010B4034653E8002F42EA010043E800046F
:107E400094F0000FF6D15DF8044B704710B4034670
:107E500053E8002F02EA010043E8000494F0000F09
:107E6000F6D15DF8044B704710B4034653E8002F79
:107E700002EB010043E8000494F0000FF6D15DF836
:107E8000044B704710B4034653E8002FA2EB0100E7
:107E900043E8000494F0000FF6D15DF8044B7047FE
:107EA00010B40346012253E8001F41EA020043E8F0
:107EB000000494F0000FF6D15DF8044B704700BF4A
:107EC00010B40346002253E8000F00EA020143E821
:107ED000001494F0000FF6D15DF8044B704700BF1A
:107EE000B8B130B4D0E90112521A0468D2B2531EAC
:107EF0002160DBB242B101680A685C1E551C0D604E
:107F00001370E3B2FF2BF6D103680020187130BC68
:107F100070470E20704700BFF0B583B004460025BF
:107F20000DF107008DF80750FFF718FFD4E9003175
:107F30001A688A4210D9511E19602168A3680F6817
:107F400012F8015C0A79268AE068DB1BDBB29A42F0
:107F500006FB050538BF0B719DF80700FFF724FFEE
:107F6000284603B0F0BD00BF30B5054683B00023FE
:107F70000DF107000C468DF80730FFF7EFFE2A6879
:107F80001368591C1160E9682A8A641AB4FBF2F478
:107F90001C709DF80700FFF707FF03B030BD00BF5E
:107FA000826842B110B50446436901680069984788
:107FB0000023A36010BD70470EB400B582B00399D2
:107FC00021B104AB01AA019300F092F802B05DF870
:107FD00004EB03B0704700BF2DE9F84F1646B142DD
:107FE000DDE90AB2884605461F467BD30B464FF0B3
:107FF0000109B3FBF6F39E4209F10109F9D9B9452C
:1080000038BFB94612F0010A02D1BBF1000F47D1C7
:10801000AA68012402E0013F06FB04F4012FFAD80C
:10802000B8FBF4F18E42F7D9304F07E0B442B4FB0D
:10803000F6F315D3B8FBF3F1AA681C46531CAB60EA
:108040002B68785C9854D5E901329A4204FB118878
:10805000ECD32846FFF7A4FFB4FBF6F3B442E9D211
:10806000BAF1000F13D0BBF1000F10D02024D94576
:108070000BF1FF3B0BD2AB682A68591CA960D454A2
:10808000D5E901329A4204D2BBF1000FEFD1BDE82D
:10809000F88F2846FFF784FFBBF1000FE7D1F6E722
:1080A00093071AD42024AA68D94502F10101B0D25D
:1080B0002B68A9609C54D5E901329A420BF1FF3B31
:1080C00003D2BBF1000FEFD1A3E72846FFF768FF0B
:1080D000AA68BBF1000FE7D19BE7002F0CBF30244B
:1080E0002024E0E74FF0010989E700BFA8EE020075
:1080F000002900F0AD812DE9F04FDFF8A8940B784E
:1081000085B0064690460C464FF0300A01E02378D1
:1081100093B1013483B1252B15D0B2683168501C5E
:10812000B0608B54D6E901329A42F0D33046FFF763
:1081300037FF2378002BECD1337B002B40F09A8063
:1081400005B0BDE8F08F0027214614F8012B2D2A39
:1081500069D0302A6AD02B2A5ED02A2A69D0A2F1AF
:108160003003092B4FF000050BD805EB850502EB1A
:10817000450511F8012FA2F13003092BA5F13005B7
:10818000F3D92E2A0C465FD0002301E014F8012F0A
:1081900002F0FB016829F9D0252A00F05681583AEF
:1081A000D1B2202936D8202A34D8DFE812F077005F
:1081B0003300330033003300330033003300330027
:1081C00033003300210085003300330033003300D7
:1081D0008500330033003300330033003300CE001A
:1081E000330033000B0133006900330033007700A4
:1081F000D8F80020131DC8F80030B3683168127831
:10820000581CB060CA54D6E901329A4202D33046B3
:10821000FFF7C6FE01347AE7214614F8012B2D2A18
:1082200047F0040795D147F001078DE747F00207B3
:108230008AE7D8F800301A1DC8F800204A781D686F
:108240002E2A01F101049FD16278A2F13003092B9B
:1082500004F101044FF000039AD803EB830302EB0F
:10826000430314F8012FA2F130010929A3F13003CF
:10827000F3D98DE7304605B0BDE8F04FFFF790BE6B
:10828000D8F80020111DC8F8001011683046CDE95B
:1082900000570A22FFF7A0FE013438E7D8F8002083
:1082A000111DC8F8001011683046CDE900571022A2
:1082B000FFF792FE01342AE7D8F80020111DC8F814
:1082C0000010D2F800B08BEAEB72A2EBEB72092A35
:1082D00040F36381DFF8D0C2012011466329ACFB73
:1082E00002E200F101004FEAD202F6DC98420246B7
:1082F00038BF1A460292002D40F0AB80B80700F15B
:1083000011810025BBF1000FC0F2FE807A070ED567
:10831000B1684A1CB26032682B205054D6E9012162
:10832000914204D330460393FFF73AFE039B07F0D4
:108330000302022A00F00981CDE9005759460A22BA
:108340003046FFF749FE0134E1E6D8F80020131D5E
:10835000C8F80030B368316817685A1CB26001F879
:1083600003A0D6E90123934280F00E813268581CA5
:108370007821B060D154D6E90123934280F0FF8088
:108380000F2F03D93A4612090F2AFCD84FF0805517
:1083900006E00F2D4FEA15137FF63CAF1D46B3687C
:1083A0003268B7FBF5F1581CB06019F80100D054E1
:1083B000D6E901329A4205FB1177EAD33046FFF73E
:1083C000EFFDE6E7D8F800301A1DC8F8002017F0D6
:1083D0000107D3F800B05DD09BF80000002800F042
:1083E000DE80B3685F46CBF10102591CB160316891
:1083F000C854D6E901138B4202EB070B1AD217F8C7
:10840000010F0028F1D15D457FF604AF202702E07F
:108410005D453FF4FFAEB2683368501CB0609F54B6
:10842000D6E901329A4205F1FF35F1D33046FFF724
:10843000B7FDEDE730460292FFF7B2FD17F8010FE6
:108440000028E0D0B368029ACFE7B3683168D7E676
:108450007047BBF1000F01DB7A0700D5013DB8077B
:1084600066D4F9073FF54EAF002D3FF44AAF202206
:108470000299A942BFF446AFB168481CB0603068A9
:108480004254D6E90101814205F1FF3554D2002D55
:10849000EED136E7BBF1000F03D0584605F0EEFAF7
:1084A0000746BD4215D9A5B1202102E0BD4210D03A
:1084B0007DB1B2683368501CB0609954D6E901238D
:1084C000934205F1FF35F1D33046FFF769FD2021D6
:1084D000ECE79BF80020002A3FF49CAEB3683168BB
:1084E000581CB060CA54D6E90123934204D21BF849
:1084F000012F002AF3D18DE63046FFF751FD1BF81E
:10850000012F002AEAD185E6B1684A1CB2603268C0
:108510002D205054D6E901219142CBF1000BFFF4FC
:1085200006AFFFE6002B36D0F9073FF5EBAEE8E6E5
:10853000002B3FF4E7AE94E730460393FFF730FD9E
:10854000039B2022002D93D1DBE6002B7FF4F4AEB9
:10855000FDB1029AAA42BFF4EFAEB1683268481C7E
:10856000B06002F801A0D6E90121914205F1FF3582
:10857000EED330460393FFF713FD039BE8E7304645
:10858000FFF70EFDB368FBE63046FFF709FDB36861
:10859000ECE60025D0E61D46B4E60120A6E68346BB
:1085A00031E700BFA8EE0200CDCCCCCCFFF798BCE1
:1085B0002DE9F041058A0331043D4E198046B6FB92
:1085C000F5F6FFF7A9FCA0B3F6B24FF48073013EB5
:1085D0000446C580C0F8008083802BD00346002568
:1085E00008E06279AE4202F1010262713860C0F8BF
:1085F00000801FD040461F46FFF78EFC0135034622
:108600000028EED16779791E17D0224601339942AE
:108610001268FBD1D2F800805FB12668002501E026
:1086200034463668214601354046FFF79DFCAF428F
:10863000F6D800242046BDE8F08120682146FFF7E7
:1086400093FCF6E704300121FFF70EBC2DE9F04161
:10865000012104460430FFF715FC10F0FF0301D0A0
:10866000BDE8F0816779791E16D022460133994220
:108670001268FBD1D2F80080002FF1D026680025C7
:1086800001E034463668214601354046FFF76CFC70
:10869000AF42F6D8BDE8F08120682146BDE8F04140
:1086A000FFF762BC2DE9F8430546C68840791446B9
:1086B00006FB00F2043A04EB030C1F1D624538BFB1
:1086C000D41ABE428846B7FBF6F106FB117002D8F9
:1086D00001392D68FCD1371AA74228BF27469CB123
:1086E0004FF000090430E41B28443A4608EB090126
:1086F00005F08EF9A642B9442D6837464FF00000C8
:1087000028BF2746002CEDD1BDE8F8832DE9F843BA
:108710000546C6884079144606FB00F2043A04EB8D
:10872000030C1F1D624538BFD41ABE428846B7FBF2
:10873000F6F106FB117002D801392D68FCD1371A09
:10874000A74228BF27469CB14FF0000904302918E2
:10875000E41B3A4608EB090005F05AF9A642B94471
:108760002D6837464FF0000028BF2746002CEDD17A
:10877000BDE8F88341DF7047064A074B10B5002477
:1087800014701C60BFF35F8F0449054800F042F885
:10879000204610BD4033002044330020C4EE0200C8
:1087A0003833002000B583B000230DF107008DF8A9
:1087B0000730FFF7D3FAF1EE103A23F09F03E1EE12
:1087C000103ABFF35F8F0B4B4022C3F884219DF812
:1087D0000700FFF7E9FA04F039FF28B920BF40BFCE
:1087E00020BF03B05DF804FBFFF7C4FF03B05DF8E2
:1087F00004FB00BF00E100E0826800239360826810
:108800001361826853618268D360826853608268B2
:108810001360704701600B6843604A68934204BF6D
:1088200000234360704700BF436843B1026891680A
:108830000B4443605268934204BF00234360704777
:10884000114910B4A1F5947205E052F83330984202
:1088500038BF21460CD28C1AE30F03EBE4035B1004
:10886000914202EBC304F0D808485DF8044B70470E
:1088700002D904F10802EEE76068044B5DF8044B8E
:10888000002808BF18467047F8F30200BCF2020047
:1088900070B5161E07DD0C468D1914F8010BFFF795
:1088A00023FAA542F9D1304670BD00BF10B50C4681
:1088B0002046FFF7EBF90528FAD0012010BD00BFD4
:1088C00010B4754B1B68082B1CD0744AD2F8883042
:1088D00043F47003C2F88830BFF34F8FBFF36F8F3C
:1088E0004FF01023D3F80022002AC0F2A380D3F85F
:1088F0000432002BC0F29E80694B6A4A1A605DF810
:10890000044B70474FF080414FF080520020C1F877
:108910000C01654BC1F81001C1F83805D2F80414F8
:10892000C3F82015D2F80814C3F82415D2F80C1493
:10893000C3F82815D2F81014C3F82C15D2F8141463
:10894000C3F83015D2F81814C3F83415D2F81C1433
:10895000C3F84015D2F82014C3F84415D2F82414F3
:10896000C3F84815D2F82814C3F84C15D2F82C14C3
:10897000C3F85015D2F83014C3F85415D2F8341493
:10898000C3F86015D2F83814C3F86415D2F83C0463
:10899000C3F868054549D2F84004C3F86C05096876
:1089A000D2F84424C3F87025032937D8404B5B5CC8
:1089B00013B1404B404A1A60404B5B5C63B1364B8D
:1089C0003F491B68394AFB20C1F81805082B11687C
:1089D0007FF47BAF032921D83A4B5B5C93B13A48D3
:1089E0003A4B2D4C02681B682468304922F00F0274
:1089F00003F00F031343082C096803607FF465AF8D
:108A000003290BD8324B5B5C43B1234B314A1B68C3
:108A10004FF40071082B11607FF457AF4FF0804383
:108A2000D3F80024D2077FF550AF6FF00102C3F8EE
:108A300000244AE7284A0123C2F80435D2F800345A
:108A4000002BFBD04FF010231221234AC3F8001251
:108A5000D2F80034002BFBD04FF0102312211E4A15
:108A6000C3F80412D2F80034002BFBD000231A49BB
:108A7000C2F80435D1F80034002BFBD0BFF34F8F80
:108A80000649164BCA6802F4E0621343CB60BFF399
:108A90004F8F00BFFDE700BF3001001000ED00E088
:108AA000042B00200090D00300C0004034010010CF
:108AB000F8F302008C56004048810300F8F30200EE
:108AC00000F00040F8F30200E40E004058020010ED
:108AD000F8F302004096024000E001400400FA056D
:108AE000074B1B5C1F2B8ABF064A4FF0A04203F0C6
:108AF0001F03D2F80405D84000F00100704700BF02
:108B0000FCF3020000030050064B1A5C1F2A86BFCC
:108B1000054902F01F024FF0A04101239340C1F824
:108B200008357047FCF3020000030050064B1A5C46
:108B30001F2A86BF054902F01F024FF0A041012302
:108B40009340C1F80C357047FCF30200000300505D
:108B50004FF0A04380214FF48042C3F80C15C3F8B6
:108B60000C2570474FF0A04380214FF48042C3F89A
:108B70000815C3F8082570470A4B185C1F288ABFE0
:108B800009494FF0A04100F01F00D1F8043501223F
:108B9000824022EA03001340C1F80805C1F80C35F1
:108BA000704700BFFCF30200000300504FF0A043E9
:108BB000D3F810056FEA503000F00100704700BF95
:108BC0000D3818BF4FF0FF30704700BF0D207047C1
:108BD000C10707D4830742BF4FF0A0430C22C3F85C
:108BE000342770474FF0A043032210B44FF4804164
:108BF000C3F81C278024C3F838278207C3F80C4524
:108C0000C3F80C1504D54FF0A0430C22C3F8342749
:108C10005DF8044B704700BF10B568B90E4CA368EF
:108C2000012262703BB1D3E900230020A260984783
:108C3000A368002BF7D110BD0128FCD1064C236995
:108C4000A070002BF7D0D3E90023012022619847C0
:108C50002369002BF7D110BD4833002070B910B53F
:108C6000074CA368012262703BB1D3E900230020C6
:108C7000A2609847A368002BF7D110BD704700BFD2
:108C80004833002030B5012883B004D0032821D018
:108C9000B0B103B030BD294C00230DF107008DF8B1
:108CA0000730FFF75BF823786BB3E3689DF80700A4
:108CB00001330122E360A270FFF776F803B030BD04
:108CC0001F4B0122C3F88020BFF34F8FBFF36F8F7C
:108CD00003B030BD194C00F0C7F800230DF10700B8
:108CE0008DF80730FFF73AF8E368013BE360E3688B
:108CF0001BB9144BD3F80054C5B19DF80700FFF71A
:108D000053F803B030BD10486360A3602361E36093
:108D100000F09EF804F09AFC60B10A4A0123237027
:108D2000D2F80024002AC0D0A370BEE700F0AEF84D
:108D3000A570E2E700F098F8EFE700BF48330020A5
:108D400000E100E000000140198C020030B585B060
:108D5000047845688DF80040D0E90240064A074B88
:108D6000039053F82130019552F821108DF80840F6
:108D70006846984705B030BD5C330020643300205E
:108D800030B585B0047845688DF80040D0E90240E0
:108D9000064A074B039053F82130019552F82110F1
:108DA0008DF808406846984705B030BD5C33002018
:108DB000643300202DE9F047DFF8748090F800E07C
:108DC0004B7F08F80E300D46074616460FCD88B08B
:108DD0006C460FC495E80F003D78DFF85890DFF837
:108DE00058C018F8055049F82E6084E80F004CF878
:108DF0002E00CDF810E05DB1002E0B4A694607F158
:108E0000040008BF324601F019FA08B0BDE8F08747
:108E1000002E064A694607F10C0008BF324600F0F2
:108E200049FF08B0BDE8F0874D8D0200818D02003A
:108E300020400020643300205C330020034B18786E
:108E400010B901221A707047852070476C330020DA
:108E5000044A137923B901211060918018467047A4
:108E60008520704770330020074B1A68D20704D45E
:108E7000C02283F8002301221A604FF080430122B0
:108E8000C3F81825704700BF00E100E010B40B4B99
:108E90000B494FF0804200200224C2F8084383B0FF
:108EA00018601B680193012301980B60D2F81834F5
:108EB000DB03FBD403B05DF8044B704704010040B2
:108EC0000C00004010B5174B1A6882B062B1002147
:108ED000154A19601B68507900934FF080410123B7
:108EE000009CC1F8083398B1104B1A68BAB100223F
:108EF0001A601B6801934FF0804202210A4B0198CF
:108F0000C2F808131B68012002B0BDE810401847E2
:108F1000116853718847054B1A68002AE7D102B0DF
:108F200010BD00BF0001004070330020040100406C
:108F3000F0B5264C94F86A3083B0002B42D14FF63E
:108F4000FF70FF255A09012A0CBF02464FF0FF327D
:108F500003F01F01CA40D20748BFE21803F1010322
:108F600048BF82F83050302BECD14FF0FF334FF038
:108F7000FF364FF0FF370622002115482366C4E96B
:108F80000233C4E90433C4E90633C4E90833C4E94D
:108F90000A33C4E9006704F049FD0E4BC02283F890
:108FA000062340221A600C4B0C4A002018601B68F4
:108FB000019301214FF00043019D84F86A10C2F82B
:108FC000043300E0082003B0F0BD00BF7833002078
:108FD000DC33002000E100E07C61004000600040E4
:108FE000034B93F86A00003818BF0120704700BF98
:108FF00078330020F0B4754B1D1895F93040002CE3
:1090000061DA8C78A707C4F3400C53D41C6A01348E
:1090100000F0D5805C6A013400F0CA800C260A2476
:1090200053F82450013552D0651CB5423FD253F855
:109030002570013700F0B480A51CB54237D253F833
:109040002570013700F0AC80E71CB7422FD253F8EF
:10905000275001353AD0271DB74228D253F8275060
:10906000013533D0671DB74221D253F8275001355F
:109070002CD0A71DB7421AD253F82750013525D05E
:10908000E71DB74213D253F8275001351ED004F123
:109090000807B7420BD253F82750013516D00934D0
:1090A000B44204D2DC6A013408BF0B240FD0042080
:1090B000F0BC70471C68013474D05C6801346DD01A
:1090C00008260224ACE70820F0BC70473C461E1876
:1090D00065B243F8242086F83050BCF1000F02D16D
:1090E0001C4484F858008A7854071AD4D60744D40C
:1090F0001F284C7887BF364E00F01F0202464FF003
:10910000A04602F5E072A40046F82240314EC408A1
:1091100000F0070C375D012202FA0CF23A43325597
:109120008A7812F002021CD0AB0003F1804303F5F1
:10913000C0430978D3F8104524F44F3424F4407424
:10914000C3F8104502020904D3F8100501F44031B8
:1091500002F47C520A430243C3F810250020F0BCFD
:109160007047083D2B44087893F8601041EA80115D
:1091700083F860101046F0BC70471F2887BF144A60
:1091800000F01F0404464FF0A04202EB8402D2F824
:10919000004724F00204C2F80047B7E7012496E72D
:1091A0002C4694E7002485F830401A6025469AE75B
:1091B000092685F830605A623446354690E708261D
:1091C00085F830601A623446354689E778330020E6
:1091D00000030050DC33002070B4324C251883B0FB
:1091E00095F93030072B22DD234493F858309B0942
:1091F000032B46D0012B0CBF4FF400324FF440320A
:109200001F288ABF284B4FF0A04300F01F0003EB3C
:109210008000D0F8003723F44033C0F80037D0F88E
:1092200000371A43C0F8002703B070BC7047DAB2A9
:10923000072AF9D8980000F1804000F5C04003F1FA
:1092400040029200D0F8106592B202F1804202F51D
:10925000C04246F00106C0F8106500201060126898
:109260000192019A0029DFD095F9302054F822208C
:10927000002AD9D00D49012202FA03F3C1F80433C0
:10928000D2E71F288ABF084A4FF0A04200F01F0310
:10929000D2F8102598BF0346DA4002F001020232EC
:1092A0001204ADE778330020000300500060004056
:1092B0001F288ABF054B4FF0A04300F01F00D3F8D2
:1092C000103523FA00F000F0010070470003005051
:1092D0002DE9F047002384B0CDE90233D54A116867
:1092E000012900F040821E46D34B1A68012A00F083
:1092F0002C82D24B1A68012A00F01982D04B1A68CE
:10930000012A00F00682CF4B1A68012A00F0F3818F
:10931000CD4B1A68012A00F0E081CC4B1A68012A73
:1093200000F0CD81CA4B1A68012A00F0A181C94B17
:109330001A68012A20D0E6B1C74F00240125A300F6
:1093400003F18043354203F5C0434FEA45050BD096
:10935000D3F8100557F82420D3F81015C0F30520D2
:10936000C1F3014102B190470134082CE7D1002E2E
:1093700017DB04B0BDE8F08700221A601B68019378
:109380004FF0A042019BD2F82015B44B0291C2F8D5
:109390002015D3F820250392C3F82025002E40F095
:1093A0008B81AD4CAD4E01254FF0A04794F9600084
:1093B000431C46D0C0F3C20204AB1A4400F00703BA
:1093C00012F8082C05FA03F31A42C1B200F03F006C
:1093D00037D01F2800F2258102464FF0A04909EB43
:1093E000820304EB000ED3F800C7D3F8008728F4FB
:1093F0004038C3F80087CCF3014C9EF93080D3F895
:1094000000E754F82880BCF1020F0CBF4FF4403A3B
:109410004FF4003A05FA02F24EEA0A0EC3F800E7EA
:10942000C9F82025B8F1000F0BD08909032900F0F5
:10943000B381BCF1020F00F0BE81BCF1030F00F05C
:10944000A88194F96100411C46D0C0F3C20204AB6C
:109450001A4400F0070312F8082C05FA03F31A4225
:10946000C1B200F03F0037D01F2800F2DE80024674
:109470004FF0A04909EB820304EB000ED3F800C7BC
:10948000D3F8008728F44038C3F80087CCF3014CA8
:109490009EF93080D3F800E754F82880BCF1020F21
:1094A0000CBF4FF4403A4FF4003A05FA02F24EEA8C
:1094B0000A0EC3F800E7C9F82025B8F1000F0BD059
:1094C0008909032900F06D81BCF1020F00F06B8166
:1094D000BCF1030F00F0628194F96200421C46D097
:1094E000C0F3C20204AB1A4400F0070312F8082CC0
:1094F00005FA03F31A42C1B200F03F0037D01F282B
:1095000000F2AE8002464FF0A04909EB820304EB63
:10951000000ED3F800C7D3F800879EF930E028F496
:109520004038C3F80087CCF3014CD3F800A754F8B7
:109530002E80BCF1020F0CBF4FF4403E4FF4003EB2
:1095400005FA02F24EEA0A0EC3F800E7C9F8202530
:10955000B8F1000F0BD08909032900F01381BCF189
:10956000020F00F02481BCF1030F00F0088194F990
:109570006300431C45D0C0F3C20204AB1A4400F0A0
:10958000070312F8082C05FA03F31A42C1B200F0DF
:109590003F0036D01F2867D802464FF0A04909EB9C
:1095A000820304EB000ED3F800C7D3F800879EF9BE
:1095B00030E028F44038C3F80087CCF3014CD3F8EE
:1095C00000A754F82E80BCF1020F0CBF4FF4403EB0
:1095D0004FF4003E05FA02F24EEA0A0EC3F800E725
:1095E000C9F82025B8F1000F0BD08909032900F034
:1095F000CE80BCF1020F00F0E280BCF1030F00F05E
:10960000C380D7F820250292C7F82025D6F8203548
:109610000393C6F8203513437FF4C8AE04B0BDE809
:10962000F08701F01F02B146D9E601F01F02B146F2
:1096300020E700BF00610040046100400861004075
:109640000C6100401061004014610040186100404E
:109650001C6100407C610040783300200003005012
:1096600001F01F02B14650E701F01F02B14696E734
:10967000554AD2F8042312067FF559AE00221A602B
:1096800019680091196E0098012903F1600346F0F2
:1096900080067FF450AE1A601B6801934FF0A04221
:1096A000019BD2F82015494B0291C2F82015D3F83E
:1096B00020250392C3F8202546F000463CE6424AA6
:1096C000D2F8042351067FF52DAE00221A601B68E4
:1096D0000093009B46F0400624E63B4AD2F8042360
:1096E00090067FF51AAE00221A601B680093009B5B
:1096F00046F0200611E6344AD2F80423D4067FF55A
:1097000007AE00221A601B680093009B46F010060B
:10971000FEE52D4AD2F8042315077FF5F4AD0022AB
:109720001A601B680093009B46F00806EBE5264A8A
:10973000D2F8042357077FF5E1AD00221A601B68B9
:109740000093009B46F00406D8E51F4AD2F8042394
:1097500092077FF5CEAD00221A601B680093009B34
:1097600046F00206C5E51849D1F8046316F0010673
:109770003FF4BAAD136013680093009BB4E502296F
:109780007FF4F5AEC047F2E602297FF43AAFC04756
:1097900037E702297FF455AEC04752E602297FF42D
:1097A0009BAEC04798E601297FF496AEF9E7012900
:1097B0007FF4DDAEE6E701297FF443AEECE7012953
:1097C0007FF41FAFE3E700BF0060004000030050DC
:1097D000014B1B68184700BFE4330020114B98422F
:1097E0001DD130B583B000230DF107008DF807308F
:1097F0000D46FEF7B3FA0C4B1C794CB99DF80700E7
:109800001D6001221A71FEF7CFFA204603B030BD69
:109810009DF80700FEF7C8FA112003B030BD002004
:10982000704700BF00200040E43300202DE9F04FD6
:1098300085B00026194DDFF868900190B3464FF0CF
:10984000010805E09DF80F00FEF7AEFAA5431ED013
:10985000F7B208FA07F40DF10F008DF80FB0FEF71C
:109860007DFA2C4206F10106ECD0D9F8003014EA5A
:10987000030AE7D11C43019B9DF80F001F70C9F834
:109880000040FEF791FA504605B0BDE8F08F4FF06A
:10989000040A504605B0BDE8F08F00BFFFFF01008D
:1098A000EC330020D9B1D2B10123834010B4C3F30B
:1098B000100484B10D4C2468234212D0C00000F182
:1098C000804303F5F8330020C3F81015C3F81425BE
:1098D0005DF8044B704707205DF8044B70470E207D
:1098E000704708205DF8044B704700BFEC33002040
:1098F000012202FA00F3580C400440B91BB1064A99
:109900001268134205D0054AC2F804357047072093
:1099100070470820704700BFEC33002000F0014082
:10992000F0B507793A4E07EB470406EB840583B0A0
:109930002B7A002B68D1A4004FEA470C32514A68B9
:109940006A6042797AB11A461D469B00046803F5A5
:10995000A0730132E550E35844790193D3B29C429D
:10996000DDF804E0F1D80268CB7842F30734002C2C
:109970004FEA123240DB04F1604404F561445B01BC
:10998000DBB284F80033026842F30733002B4FEA5E
:10999000123409DB1F4D01225B0904F01F0402FA97
:1099A00004F445F823400268D2F804454B7824F0CB
:1099B000030403F003032343C2F8043504688B78DF
:1099C000D4F8082503F0030322F003021343C4F87C
:1099D000083500680B78D0F81025674422F00F0294
:1099E00003F00F0306EB870613430121C0F810357F
:1099F0000020317203B0F0BD074C02F00F025B0192
:109A00001444DBB22376BEE7082003B0F0BD00BFEC
:109A1000F033002000E100E0FCEC00E00368054AC0
:109A200001211960037903EB430302EB8303022254
:109A30001A727047F0330020F0B4076840F2011545
:109A4000D7F800428D4024EA0504C7F800420568B3
:109A500082B0D5F800429DF8186023434FF480345B
:109A6000C5F800328C409EB18B00056803F5A073E9
:109A70000026EE50ED5803680195019DC3F804439C
:109A8000036801F5A87143F8212002B0F0BC7047CB
:109A90000368C3F80843F3E72DE9F041114CDFF800
:109AA0004C80114E82B000254FF48037236807FAAE
:109AB00005F101357BB1D8F8042304F5C04011420B
:109AC0004FF0000380B206D0236023680193D6E9EB
:109AD0000031019A9847062D04F10404E6D102B042
:109AE000BDE8F08140A10140F033002000A001401A
:109AF00030B56E4AD2F8043399058BB068D5D2F8E8
:109B00002431002B64D00023C2F82431D2F8243150
:109B100001934FF40171664B0198C2F8081393F852
:109B2000291009B901215160604902228DF81820DD
:109B3000D1F88024C1F880249869D968099200245A
:109B40000025CDE90710C3E90645D3E9001206A8B0
:109B50009047564AD2F81C31C3B1554B5869196A1F
:109B600088426AD993F8281001F0FF00002964D1D7
:109B7000C2F81C01D2F81C11039103999C68186A61
:109B8000196A205C01311962C2F81C05474AD2F8F3
:109B90004431DBB10021464BC2F84411D2F84401F4
:109BA00093F829100090009809B1012111609A6979
:109BB00062B1586AD96800229A610122CDE9071082
:109BC0008DF8182006A8D3E9001290470BB030BDDD
:109BD000364AD2F804335B07BBD5D2F80831002BE4
:109BE000B7D0334B996900293ED00021C2F8081143
:109BF000D2F8081104910499D868596AD2F8182546
:109C000042545A6A996901325A625A6A8A42A0D108
:109C1000DA69002A31D0DD685C6A18699A6101212D
:109C20000022D860DA615A628DF81810CDE9075425
:109C3000D3E9001206A890478BE71C4A0021C2F81E
:109C40001C11D2F81C210292029A5A69002A9DD056
:109C500058699A688DF8181008905961079206A8FB
:109C6000D3E90012904791E7C2F80811D2F8080131
:109C700005900598D2F81825C7E793F8292012B95E
:109C80000A4A01215160094A4FF40171C2F80813D0
:109C9000596ADA6808910024012007928DF81800AB
:109CA000D3E900129C6106A8904752E700200040CB
:109CB000003400202DE9F041DFF8E48106792C23FF
:109CC00003FB068382B093F82A30002B40F09E807D
:109CD00005460C4600686D491746FFF77FFD0028D2
:109CE00040F090802368591C19D01F2B4FF00102BF
:109CF0008ABF67494FF0A04103F01F0302FA03F344
:109D0000C1F8083523681F2B86BF03F01F03604A84
:109D10004FF0A04203F5E073032142F8231063687B
:109D20005A1C0BD01F2B86BF03F01F03584A4FF05D
:109D3000A04203F5E073002142F823102B68A269CA
:109D4000C3F82425217D637D2A680B43C2F86C3556
:109D5000D4E900122B68C3F81425C3F80C15237D31
:109D6000012B5FD02C2303FB06F308EB03025760A3
:109D7000226948F803202A6897B30021237FC2F89C
:109D80001C11D2F81C2100922A68009FC2F84411CD
:109D9000D2F844112A6801913E4C0199C2F804435B
:109DA0002A6842F3073100294FEA123232DB01F10F
:109DB000604101F561415B01DBB281F800332A6843
:109DC00042F30733002B4FEA123109DB324C0122F8
:109DD0005B0901F01F0102FA01F144F823102A681F
:109DE0002C2303FB0686012400230421C2F800155E
:109DF000C6E9063386F82A4086F82930736102B036
:109E0000BDE8F081112002B0BDE8F081082002B069
:109E1000BDE8F081214902F00F025B011144DBB281
:109E20000B76CCE7A368591C0BD01F2B86BF03F021
:109E30001F0317494FF0A04103F5E073002241F8DA
:109E40002320E3685A1C1AD01F2B8ABF10494FF0F9
:109E5000A04103F01F03012202FA03F3C1F8083501
:109E6000E3681F2B88BF03F01F0303F5E0738CBF6B
:109E700007494FF0A041032241F82320E3682A68F4
:109E8000A168C2F80835C2F810156BE7F19A020014
:109E9000000300508000020000E100E0FCEC00E064
:109EA000003400202DE9F041314E05792C2303FBCD
:109EB00005630446586984B000284CD15A61996002
:109EC000186283F828002268C2F81C01D2F81C111D
:109ED000226802910121029F91602268D3F808C094
:109EE000C2F81C01D2F81C11019101991F6A196A6C
:109EF0001CF8077001311962C2F81C755A6812B15A
:109F000004B0BDE8F0815F691A6A216897421BD9E5
:109F1000864602E093F828200ABBD1F81C21002ACB
:109F2000F8D0C1F81CE1D1F81C210392039AD3F8B0
:109F300020801A6A1CF8088001321A62C1F81C8558
:109F40001A6A9742E9D82168D1F81C31002BFBD05E
:109F50000123CB6004E0112004B0BDE8F0810F20A4
:109F60002C2303FB056500236B6104B0BDE8F08181
:109F7000003400200379044A2C2101FB0323586993
:109F8000003818BF0120704700340020F0B4504F53
:109F900006792C2303FB067386B05D68044625B161
:109FA00003684FF40170C3F808032C2303FB067306
:109FB000986990B1D86900287CD11961DA612C23A5
:109FC00003FB06735A683AB323684FF40172C3F86F
:109FD0000423002006B0F0BC704793F829509A6122
:109FE000D9605862D861002DE9D12368C3F82451A3
:109FF000D3F8242123680192019AC3F80851D3F8B9
:10A00000082123680292012202991A602C2303FB83
:10A0100006735A68002AD7D12168C1F84421D1F8C3
:10A0200044210392039A2268D2F82411D2F80851ED
:10A03000D2F8440155B9002833D10029F4D02C239B
:10A0400003FB06760023B3610320C3E70029F6D1A2
:10A0500048BB9969C2F8080181B1D2F8081104918E
:10A060000499DD68596AD2F818256A545A6A9969C0
:10A0700001325A625A6A9142D5D806E0D2F80811E4
:10A0800005910599D2F818255B6A2C2303FB067607
:10A09000002296F82930B261A3B1236801221A6028
:10A0A00098E70029CBD12C2303FB06760023B3616C
:10A0B0000F208FE755B123684FF40172C3F80423D2
:10A0C000112087E7236801225A6083E7112081E786
:10A0D0000034002030B5574BD3F824218BB0002A30
:10A0E00075D00022C3F82421D3F82421049202223F
:10A0F0008DF81820049AD3F880144F4AC3F88014BE
:10A100000991D3F83C15D3680891002400250793E2
:10A11000C2E906451168536806A89847454BD3F82D
:10A12000442152B10021444AC3F84411D3F84401F8
:10A13000916903900398002938D13E4BD3F8202130
:10A140005AB10021C3F82011D3F820210292012036
:10A15000394A029CD8605069D8B9364BD3F8582197
:10A16000AAB10021C3F85811D3F85801324A01901E
:10A170000198506958B1D3F84C05936808908DF850
:10A1800018105161079306A8D2E9001398470BB045
:10A1900030BDD3F84C05936808908DF818105161C4
:10A1A000079306A8D2E900139847D6E7D3F83C35C1
:10A1B000D168089300240025012307918DF81830F9
:10A1C000C2E90645D2E9001306A89847B5E7D3F8D7
:10A1D00010110029A2D0C3F81021D3F8101116488D
:10A1E000059105998469D3F83C15A14296D1C469BB
:10A1F000A4B1D3F80052846125F02005C3F80052C1
:10A20000D0E90343C26101220891C3600168436839
:10A2100007948DF8182006A898477FE7C2688461E4
:10A220000123CDE907218DF81830D0E9001306A8E5
:10A23000984773E700200040303400202DE9F043B8
:10A240000779824E07EBC70306EB830387B093F8C9
:10A250002030002B40F0B98004460D4600687C4950
:10A260009046FFF7BBFA002840F0AB802B68591CE2
:10A270004FEAC70919D01F2B4FF001028ABF754959
:10A280004FF0A04103F01F0302FA03F3C1F80835B1
:10A290002B681F2B86BF03F01F036E4A4FF0A042AE
:10A2A00003F5E073032142F823106B685A1C0BD0AE
:10A2B0001F2B86BF03F01F03664A4FF0A04203F531
:10A2C000E073002142F823102368AA69C3F824250B
:10A2D000297D6A7D23680A43C3F86C25D5E90031DE
:10A2E0002268C2F80C35C2F814152B7D012B78D0EA
:10A2F00009EB070206EB8203C3F804802B6946F8DA
:10A300002230B8F1000F4BD021682B7F524D002234
:10A31000C1F81021D1F8101101912168DDF804C0B5
:10A32000C1F82021D1F8201102912168DDF808C080
:10A33000C1F82421D1F8241103912168DDF80CC063
:10A34000C1F84421D1F8441104912168DDF810C00E
:10A35000C1F85821D1F85811226805910599C2F821
:10A360000453226842F3073100294FEA123230DBEE
:10A3700001F1604101F561415B01DBB281F800331D
:10A38000226842F30733002B4FEA123109DB334DC9
:10A3900001225B0901F01F0102FA01F145F82310C7
:10A3A00022684F4406EB8706002301240821C2F8E7
:10A3B0000015C6E9063386F82040736107B0BDE892
:10A3C000F083112007B0BDE8F083082007B0BDE896
:10A3D000F083234902F00F025B011144DBB20B76DC
:10A3E000CEE7AB68591C0BD01F2B86BF03F01F03B1
:10A3F00018494FF0A04103F5E073002241F82320F3
:10A40000EB685A1C1AD01F2B8ABF12494FF0A0418B
:10A4100003F01F03012202FA03F3C1F80835EB68C9
:10A420001F2B88BF03F01F0303F5E0738CBF09499E
:10A430004FF0A041032241F82320EB682268A9686D
:10A44000C2F80835C2F8101552E700BF30340020BA
:10A45000D5A00200000300501003420000E100E01C
:10A46000FCEC00E0F0B401F06044B4F1005F82B0B5
:10A470002CD10579274E05EBC50406EB8404034671
:10A480006069EF0000283ED16261A1601A68C2F8DD
:10A490002001D2F820C11A68CDF804C0DDF804C04C
:10A4A000C2F85801D2F8582100921A68DDF800C0AD
:10A4B000D4F814C0C2F84415C2F848C51A6801217E
:10A4C0009160626832B102B0F0BC7047102002B0F7
:10A4D000F0BC70471A6800E0C8B9D2F82011D2F871
:10A4E00058010029F8D090B90121D1601B68D3F838
:10A4F0005821002AFBD07B1906EB830300225A6106
:10A5000002B0F0BC7047112002B0F0BC70470F20C1
:10A51000F1E700BF303400200379054A03EBC303A1
:10A5200002EB83035869003818BF0120704700BF51
:10A530003034002001F06043B3F1005F5ED1F0B42D
:10A540000479474D04EBC40605EB860682B07668B5
:10A55000E30026B107684FF4047CC7F808C323441E
:10A5600005EB83039C694CBB9A61DC61D96003688D
:10A57000C3F81041D3F8106103680196019EC3F837
:10A580004441D3F8444103680094009CC3F8341557
:10A59000C3F83825036801221A60047904EBC40368
:10A5A00005EB8303E6005B6853B303684FF4047262
:10A5B000C3F80423002002B0F0BC7047DC69002C13
:10A5C00037D11961DA610368C3F81041D3F810611B
:10A5D00003680196019EC3F84441D3F844410368DF
:10A5E0000094009CC3F83415C3F838250268D2F8EB
:10A5F000003243F02003C2F80032CEE7102070474B
:10A60000036801E0E9B910BBD3F81021D3F8441175
:10A61000D3F82401002AF5D0344400284FF0000379
:10A6200005EB840518BF0320994218BF0F20AB61CA
:10A63000C1E796B103684FF40472C3F804231120F4
:10A64000B9E7344405EB84050F20AA61B3E734442D
:10A6500005EB84050320A961ADE71120ABE700BF3E
:10A66000303400202DE9F041644B1A6888B002BBF9
:10A67000634F97F82E30002B29D1624B1A685AB1DC
:10A6800000221A601B68039302218DF814103B68A6
:10A6900003993A7405A898475B4B1C68002C30D08E
:10A6A00000221A601B680593059B3A7408B0BDE848
:10A6B000F081534F00221A60196897F82E300091EC
:10A6C0000099002B4ED097F82F30002B63D14F4BC1
:10A6D0001A68002AD1D000211960186897F82D2037
:10A6E0007B8B01909342019894B263D874D0434B12
:10A6F000474A002119601B680293012302991360E5
:10A70000BBE77E69002ED1D04FF000480125B6FA94
:10A7100086F101F146039B0003F1804202F5E0421D
:10A72000A3F58C73D2F800E083F0040028FA01F15D
:10A73000C0F3800CDB0805A826EA0106BEF1000F75
:10A740000BD01460126804928DF818308DF81450F4
:10A750003B688DF819C0049A9847002ED7D108B0ED
:10A76000BDE8F081FA68786839898DF81430069070
:10A77000ADF81C10002A2CD02648398B7A600122B3
:10A78000FB607983398102603B6805A89847002304
:10A7900087F82F306DE7FB68786839898DF81420C9
:10A7A0000690ADF81C10A3B1398B7B60FA607983F9
:10A7B0003981E9E7398978681B1B9BB289B2154C4E
:10A7C0007B83C91A00EB4101C4F82C16C4F830266B
:10A7D0008DE700233B74D7E7FB684BB10D487983C5
:10A7E000012187F82F10C0F82C36C0F830267EE7FC
:10A7F00001227B8387F82F2079E700BF0471004096
:10A800005434002010710040147100400071004069
:10A810000470004000700040234B93F82C20002A65
:10A8200040D170B4214D04781960C5F8F0454478E2
:10A830001F49C5F8F4456FF000441A74C678C5F88E
:10A84000084385B00A60096803911A49039C0A60AD
:10A850000968194C02910299226081782068019060
:10A860004901164883F82D205A6183F82F20C9B278
:10A870000122019C83F82E6083F82C2080F80713B6
:10A880008021016093F82E300221C5F804130BB12A
:10A89000C5F80423054B01220020C3F8002505B0AC
:10A8A00070BC70470820704754340020007000408E
:10A8B00004710040007100401471004000E100E0AC
:10A8C000F0B4254C237C002B43D100F10C0604EBA3
:10A8D00046031B79002B36D04B788A780D780F7998
:10A8E0001B01120202F4E06203F030031343CA7842
:10A8F00005F003052B4312034D7902F480523F0407
:10A90000134307F4E0272D058A793B4305F48015AE
:10A910002B43050104EB4604120605F18045CE7970
:10A92000267105F5E04502F080720E7A66711343D8
:10A93000C5F81835CB79097AC5F81415C5F810355E
:10A940000020F0BC704794F82D30013384F82D308E
:10A95000C2E71120F0BC704754340020044B054A74
:10A9600093F82E00044B002814BF10461846704779
:10A97000543400200070004004700040F0B42D4DAD
:10A980002D4B1222C5F808231C7C022C82B04BD020
:10A990001A7C012A24D093F82E2058600227012423
:10A9A0000026C5F804731C74DE6019816AB9234B54
:10A9B000C5F82C06C5F830161A601B680193019B78
:10A9C0002C60104602B0F0BC704793F82D20C5F8FB
:10A9D0002C0630465983C5F8302602B0F0BC7047CB
:10A9E000DA6832B102231120C5F8043302B0F0BC9A
:10A9F000704793F82E20D86019836AB90F4A1368FC
:10AA0000002BFCD00023136012680A4B0092009ABE
:10AA1000C3F82C06C3F83016064B02220020C3F8F8
:10AA2000042302B0F0BC70471120C5F8042302B023
:10AA3000F0BC7047007000405434002000710040AA
:10AA40000220FEF799B800BF2DE9F0410C460546FB
:10AA5000FEF7B6F820B9012C17D0022C1DD00CB18E
:10AA6000BDE8F0811448FCF7C9FF144A144B9478F0
:10AA70001B78A342F4D1002CF2D0124B1B68002BA0
:10AA8000EED02046BDE8F04118470C4E737834787C
:10AA900033B90B4BB2781A70EDE7084B5C78EAE7F4
:10AAA000094F05483A464FF40041FCF74DFF002896
:10AAB000EFD13D70EDE700BFA8340020E83400205E
:10AAC000FC340020F43400208434002010B50078D9
:10AAD000FEF776F840B9054B587828B1044B1B684F
:10AAE00013B1BDE81040184710BD00BFE834002086
:10AAF000F4340020AA4B1B68DB0700D4704770B504
:10AB0000A84DA94E2B78347853B1A84B1B78002060
:10AB10002870002B48D0FEF709F80120FEF706F850
:10AB2000172C40D8DFE814F000015F005F007500CB
:10AB30009B008800A800C7004F0043004F0043005F
:10AB4000C20018001800180018001800B500CD0049
:10AB5000DD00ED005B005B009548FCF74FFFD4F192
:10AB60001104054600F0EF80002840F0EC80012C35
:10AB700013D0C82303FB04F44FF4FA704FF40043DE
:10AB80000021C3FB04014FF47A72002303F040FF5D
:10AB90002A4601468648FCF7D7FE0220FDF7B4FF9F
:10ABA000824B01221A7070BDFDF7D2FFB8E7012079
:10ABB0002870FDF7E1FFBDE870407E4800224FF4A9
:10ABC0008041FCF7C1BE01202870FDF7D5FFBDE82C
:10ABD00070407848002240F6CD41FCF7B5BEFDF745
:10ABE000C1FF347070BD0020FDF77AFF002800F02F
:10ABF000B1800020FDF79AFF022C4EF2666118BF6B
:10AC00004FF4003134706B48BDE870400022FCF70F
:10AC10009BBE0020FDF764FF002800F0A880002004
:10AC2000FDF784FF46F26661032333706148BDE897
:10AC300070400022FCF788BE0020FDF751FF00287D
:10AC400000F092800020FDF771FF05233370594812
:10AC5000BDE87040002241F69A11FCF775BE002055
:10AC6000FDF73EFF002800F087800020FDF75EFF23
:10AC70004FF400310423D8E70020FDF77DFF0623C1
:10AC800033704C48BDE87040002240F6CD41FCF7DF
:10AC90005BBE464B1B78002B7CD00020FDF746FFA7
:10ACA0000120FDF743FF1223337070BDFDF75AFFFB
:10ACB0000C23337070BD0020FDF726FF072333708F
:10ACC00070BD3A4B1B78002B5BD00020FDF72EFFA8
:10ACD0000120FDF72BFF0020FDF716FF1323337033
:10ACE00070BD324B1B78002B4ED00020FDF71EFFAD
:10ACF0000120FDF71BFF0120FDF706FF1423337031
:10AD000070BD2A4B1B78002B41D00020FDF70EFFB1
:10AD10000120FDF70BFF0020FDF7F6FE0120FDF7F7
:10AD2000F3FE1523337070BD204B1B78ABB30020AE
:10AD3000FDF7FCFE0120FDF7F9FE1E48FCF75EFE64
:10AD40000023337070BD0220FDF7F0FE174B002288
:10AD50001A7070BDFDF7D8FE41F69A1143F23333F5
:10AD6000022C18BF19464DE7FDF7CEFE6DE7FDF743
:10AD7000CBFE41F69A1157E7FDF7C6FE43F2333199
:10AD800078E7FDF7E5FEA6E7FDF7E2FEB3E7FDF79E
:10AD9000DFFEC0E7FDF7DCFE85E7FDF7D9FECCE777
:10ADA000EC340020F0340020F834002085340020FA
:10ADB00088340020C834002008B100207047FDF717
:10ADC000F5BE00BF38B5BA4B1C6814F0010401D1C0
:10ADD000204638BDB74C237805464BB1B64B1B789F
:10ADE000002020700BB3FDF7A1FE0120FDF79EFEB1
:10ADF000172D00F25A81DFE815F01A015C005C00A3
:10AE0000B500C800E300F600DB0044005000440039
:10AE1000500004011B001B001B001B001B000B014A
:10AE200079008C009F0073007300FDF791FEDFE74F
:10AE3000A248FCF7E3FD0446D5F1110000F00881BB
:10AE4000002C40F00581012814D0C82505FB00F531
:10AE50004FF400434FF4FA700021C3FB05014FF497
:10AE60007A72002303F0D4FD224601469348FCF792
:10AE70006BFD04460220FDF747FE8F4B01221A703E
:10AE8000A6E701202070FDF777FEBDE838408C482A
:10AE9000002240F6CD41FCF757BD01202070FDF7A0
:10AEA0006BFEBDE83840864800224FF48041FCF735
:10AEB0004BBD0020FDF714FE002800F0DD800020CF
:10AEC000FDF734FE022D4EF2666118BF4FF40031DB
:10AED0007C4B7B481D70BDE838400022FCF734BD38
:10AEE000FDF740FE774B00241D7071E7724B1B7815
:10AEF000002B00F0CE800020FDF718FE0120FDF7AA
:10AF000015FE0020FDF700FE6E4B13221A70002480
:10AF10005EE7694B1B78002B00F0C1800020FDF735
:10AF200005FE0120FDF702FE0120FDF7EDFD654B5A
:10AF300014221A7000244BE75F4B1B78002B00F0A3
:10AF4000B1800020FDF7F2FD0120FDF7EFFD0020AC
:10AF5000FDF7DAFD0120FDF7D7FD5A4B15221A70D7
:10AF6000002435E70020FDF7BBFD00287CD0002041
:10AF7000FDF7DCFD46F26661524B514803241C701C
:10AF8000BDE838400022FCF7DFBC0020FDF7A8FD3B
:10AF9000002864D00020FDF7C9FD4FF40031494B73
:10AFA000474804241C70BDE838400022FCF7CCBCA4
:10AFB0000020FDF7A9FD434B07221A70002407E784
:10AFC0000020FDF78DFD002853D00020FDF7AEFDD9
:10AFD0003C4B3B4805241C70BDE83840002241F63C
:10AFE0009A11FCF7B1BC0020FDF7C6FD354B344883
:10AFF00006241C70BDE83840002240F6CD41FCF725
:10B00000A3BCFDF7AFFD2F4B0C221A700024DFE626
:10B01000294B1B78002B39D00020FDF787FD01203C
:10B02000FDF784FD274B12221A700024D0E6224B34
:10B030001B788BB30020FDF779FD0120FDF776FD2D
:10B040001F48FCF7DBFC1F4A002104461170BFE6D5
:10B050000220FDF76BFD184B00221A70B8E6FDF7D1
:10B0600053FD43F233319AE7FDF74EFD41F69A1155
:10B0700082E7FDF749FDABE7FDF746FD41F69A1182
:10B0800043F23333022D18BF194621E7FDF760FD67
:10B09000C8E7FDF75DFD34E7FDF75AFDD0E7FDF7A2
:10B0A00057FD41E7FDF754FD51E7002490E600BF4E
:10B0B000EC340020F0340020853400208834002057
:10B0C000C8340020F834002038B5214B214A1960DB
:10B0D00081070446106004D410F0010534D12846DD
:10B0E00038BD1D4B1D480E251D7040F266620121C2
:10B0F000FCF77EF8054630B1E207F0D50120FDF7F8
:10B1000067FD284638BDFCF7D3F805460028F3D183
:10B110000146134A1348FCF705FCE3070546DED554
:10B120000120FDF755FD002DD9D10F4A0F48002110
:10B13000FCF7F8FB05460028D1D1BDE838400C4AA1
:10B140000C480121FCF7EEBB0120FDF741FDECE7C7
:10B15000F4340020EC340020E834002040F40200F5
:10B16000CDAA02004CF40200F5AA020050F402003D
:10B1700041AA020048F4020030B9012A06D0012990
:10B1800012D0022907D051B10720704701290AD0F7
:10B1900002290246F7D1064B00205A707047044B33
:10B1A00008469A7070470E22014B00201A707047B3
:10B1B000E834002008B10620704708B5FDF706FD09
:10B1C0001F2886BF0A4B00F01F004FF0A04303EB7F
:10B1D00080030020D3F8002722F44032C3F8002770
:10B1E000D3F8002742F44032C3F8002708BD00BF5F
:10B1F0000003005010B50388102B07D0112B04D189
:10B20000254B18680138186030B110BD224C2168F8
:10B2100011B30131216010BD01220221FFF7ACFF03
:10B2200040B1072806D01D4B1B68002BEDD0BDE8B0
:10B2300010401847072202210120FFF79DFF08B1A7
:10B240000728F0D1002108460A22FFF795FF0028C1
:10B25000DBD00728E7D1D8E701220846FFF78CFFAB
:10B2600038B1072805D00D4B1B6803B198472168FA
:10B27000CFE7072202210120FFF77EFF08B1072850
:10B28000F1D1042202210020FFF776FF0028EED042
:10B290000728E8D1EBE700BF043500200035002087
:10B2A00008B50020FFF786FF10B1062800D008BDC2
:10B2B0000120FFF77FFF0028F9D0062808BF0020F3
:10B2C00008BD00BF184B10B5186031B101200C4605
:10B2D000FFF772FDF8B102232370144B186808B110
:10B2E000002010BD01220221FFF746FF08B1072808
:10B2F000F7D1072202210120FFF73EFF08B10728FE
:10B30000EFD1002108460A22FFF736FF0028E7D0D8
:10B310000728E5D010BDFFF74FFD10B10B232370B8
:10B32000DBE72070D9E700BF00350020043500209E
:10B3300076DF70477ADF70477CDF70477FDF7047CA
:10B340008FDF7047B1DF704733DF7047704700BF52
:10B35000FBF7C4BF38B503780446BBB110480023DF
:10B36000451C61685A1031F81210C154616831F9F6
:10B3700012201212EA540233602BF2D1094A0A4910
:10B380001368012003441360087038BD4068302101
:10B39000FFF7F4FA0028E1D0FBF7A0FFDEE700BFDB
:10B3A00028400020003600202440002010B50388EB
:10B3B000212B82B004460FD80F2B18D9103B112B2C
:10B3C00015D8DFE803F0243C144C1414141414149E
:10B3D000141414141414141A522B4AD0562B08D1D6
:10B3E000A0881321FFF7A4FF08B1FBF777FF02B095
:10B3F00010BD3B2BF4D002B010BD00238088ADF807
:10B40000043001A9FFF79CFF0028F0D0EDE71F4BA7
:10B410001F482049C01AC008000440F00300FBF791
:10B4200099F90720FFF7CEFC00282CD11A4BA188F0
:10B430001A48198001F0A2FE0028D8D0D5E7134B96
:10B4400013481749C01AC008000440F00300FBF776
:10B4500081F9114B4FF6FF721A8002B010BD0E4AEF
:10B460000023108885211A46FFF768FF0028BED008
:10B47000BBE7094A0023108819461A46FFF762FF06
:10B480000028B4D0B1E7FBF729FFCFE7ACFB0200FF
:10B49000ECFB020054F40200122B0020143B0020AD
:10B4A00060F402000E4B4A881B889A4200D0704715
:10B4B0000A8840F677239A42F9D110B4094A0A481B
:10B4C0008B880A4C0A49801A033BC0089BB20004CF
:10B4D000238040F003005DF8044B1A46FBF7CCBA1A
:10B4E000122B0020ACFB0200ECFB0200102B002012
:10B4F00070F4020008B5037803B108BD054B3B2189
:10B500001888FFF715FF0028F7D0BDE80840FBF7C3
:10B51000E5BE00BF122B0020072808B51CD00A2862
:10B520000ED0042800D008BD154B13211888FFF752
:10B53000FFFE30F00803F6D0BDE80840FBF7CEBEB2
:10B540000020FFF73FFCB8B9FFF7AAFE88B9FFF764
:10B55000FBFE0028F0D108BD094B1A884FF6FF7397
:10B560009A42E0D1074801F0D9F830F00803E3D15E
:10B5700008BDFBF7B3FEEAE7FBF7B0FEE4E700BF68
:10B58000122B002004360020F0B50378012B83B085
:10B5900004D0022B02D033B103B0F0BD4068FBF7FA
:10B5A0009DFE03B0F0BD194C194D20782844FCF7DE
:10B5B0006DFB22780132D2B21544227015F8013C9D
:10B5C0000A2B05D00D2B03D0124B1B889342E3D8D6
:10B5D000012A12D9104F0E4E104DADF806203B88AF
:10B5E0000DF106023146284601F06CFF082804D010
:10B5F000132806D0052800D028B90023237003B0F3
:10B60000F0BD2278E9E7FBF769FEF6E7FC3500209C
:10B6100008350020102B0020122B0020142B0020B6
:10B620002DE9F0410578D5B9838A06467BB3194FD9
:10B63000194BDFF86880FF1AFF083F0447F0010745
:10B640003369585DFCF750FB0446A8B9B38A01354D
:10B65000AB42F5D8013B3269D35C0D2B01D0BDE87C
:10B66000F0810A20FCF740FB1128F8D10A20FCF7F2
:10B670003BFB1128F5D0F2E7112C02464146384633
:10B68000DED0FBF72BF92046FBF728FEDEE74FF074
:10B69000FF33E0E7ECFB0200ACFB02008CF402009D
:10B6A000FBF71CBE08B530B1032803D10220FFF719
:10B6B00089FB50B908BDFFF785FB50B9FFF7F0FDD6
:10B6C00068B9FFF741FE0028F4D0BDE80840FBF759
:10B6D00005BEFBF703FEFFF7E3FD0028F1D0FBF703
:10B6E000FDFDEEE708B50B490B4801F029FC28B930
:10B6F0000948F72101F03CFC40B908BDFBF7EEFD1D
:10B700000548F72101F034FC0028F6D0BDE80840D8
:10B71000FBF7E4BDA5B40200F83A002000B587B0FD
:10B72000FDF78CFB58BB00211C4B05911C4A1D48A2
:10B73000049304A9FEF7F4F868BB1B4B1948D3F82F
:10B7400010350021DBB24FF47A52DA400091012328
:10B75000FEF772F91348FEF761F9FFF7FFF80246AA
:10B7600012480392FEF762F8039A80B90F4B104912
:10B770001878FEF797F828B907B05DF804FBFBF7D7
:10B78000ADFDD0E7FBF7AAFD07B05DF804FBFBF7C2
:10B79000A5FD039AEAE7FBF7A1FDCEE70900000645
:10B7A0004DB3020028F5020000A00140103B00202C
:10B7B00040A1014008B5054B1878FEF799F800B98B
:10B7C00008BDBDE80840FBF789BD00BF103B002065
:10B7D00030B5214B85B053F8042B009293E8070055
:10B7E00001AB03C301254FF481741C491A706846EC
:10B7F0008DF80050ADF80640FFF70EF880B901A9AA
:10B800000020FFF75DF898B915483021FFF7B6F82A
:10B81000B0B914483021FFF7B1F8C8B905B030BD50
:10B82000FBF75CFD01A90020FFF74AF80028EBD0E8
:10B83000FBF754FD0A483021FFF7A0F80028E8D0B4
:10B84000FBF74CFD07483021FFF798F80028E5D0BA
:10B85000FBF744FD05B030BD00F5020055B3020012
:10B86000383A0020983A002080B5924D924BB0B003
:10B8700004AC00930FCD0FC495E803004FF4807320
:10B8800084E8030001938D4C03938D4A029469462A
:10B8900004A80723FCF77EF9002840F0DB804FF472
:10B8A00000410020FAF7E0FD002840F00081FAF79F
:10B8B000CBFDFBF7DFFF002840F0F6808149032035
:10B8C000FFF702FC002840F0EC8004A90020FFF7FD
:10B8D000F9FC002840F0E280FCF74EFF002840F021
:10B8E000DA8001F027FE002840F0D280002304A96E
:10B8F0000120049301F0FEFE002840F0C68004A859
:10B9000001F0D6FF002840F0BD8011236E488DF86D
:10B91000003002F0B3F86C4982B26846FFF70CFDC4
:10B92000002840F0AC800822002104A802F07EF834
:10B93000664B049304A84FF0C8730593FFF7FAFC15
:10B94000002840F09980FFF7CDFE614B61480493D9
:10B9500004A901F001FC002840F08B8000210422A2
:10B96000684602F063F85C4B5C480093694601F05E
:10B9700035FD00287AD1AC22002104A802F056F847
:10B98000574C584A189402214FF4A06001238DF8B7
:10B990001010ADF81200402444F250655248ADF842
:10B9A0005C3004A9CDE926458DF88C302D9200F04D
:10B9B000EDFD002857D14C48012100F0E3FD1C2289
:10B9C000002104A802F032F80023484A0493ADF89D
:10B9D0001E308DF82030464B4FF420354FF4702444
:10B9E000032104A8CDE90554CDE909238DF81C10E5
:10B9F00000F0F2FFA0BB3C48032100F043FE60BB17
:10BA0000FFF78CFEFFF7D6FEFFF7E2FE39483A4C0F
:10BA1000DFF8FC80394F3A4E304D02F00FF8394BC9
:10BA200039483A49C01AC008000440F00300FAF748
:10BA300091FE2378012B08D1B8F800303A46314600
:10BA4000284601F03FFD00232370FAF75BFDFCF769
:10BA5000A9FEEEE7FBF742FC21E7FBF73FFCCFE74F
:10BA6000FBF73CFCC7E7FBF739FCA4E7FBF736FC28
:10BA700081E7FBF733FC71E7FBF730FC63E7FBF78B
:10BA80002DFC50E7FBF72AFC3FE7FBF727FC36E7E6
:10BA9000FBF724FC2AE7FBF721FC22E7FBF71EFC5F
:10BAA0001AE7FBF71BFC10E7FBF718FC06E7FBF7B0
:10BAB00015FCFCE610F50200203B0020203C002095
:10BAC00089B5020019B50200B8F402001000280080
:10BAD00051B30200143B002021B60200142B0020B9
